{
  "transactions": [
    {
      "hash": "0x29df8e7b43ef38afe8d046ee2e69cae544107f39223655d9ad5cc5930c8f81f7",
      "transactionType": "CALL",
      "contractName": null,
      "contractAddress": "0x6e9972213bf459853fa33e28ab7219e9157c8d02",
      "function": null,
      "arguments": null,
      "transaction": {
        "from": "0x6698bf15be0abbdf4b0dcd60d97fce7461dd9c1b",
        "to": "0x6e9972213bf459853fa33e28ab7219e9157c8d02",
        "gas": "0x714d",
        "value": "0x2386f26fc10000",
        "input": "0x",
        "nonce": "0x9",
        "chainId": "0x14a34"
      },
      "additionalContracts": [],
      "isFixedGasLimit": false
    },
    {
      "hash": "0x5ef86fbb3f4ec145e3b8ebfafaaabeb4a4f8e42df4f2b76831079285c790c1df",
      "transactionType": "CALL",
      "contractName": null,
      "contractAddress": "0xba5359fac9736e687c39d9613de3e8fa6c7af1ce",
      "function": null,
      "arguments": null,
      "transaction": {
        "from": "0x6698bf15be0abbdf4b0dcd60d97fce7461dd9c1b",
        "to": "0xba5359fac9736e687c39d9613de3e8fa6c7af1ce",
        "gas": "0x714d",
        "value": "0x2386f26fc10000",
        "input": "0x",
        "nonce": "0xa",
        "chainId": "0x14a34"
      },
      "additionalContracts": [],
      "isFixedGasLimit": false
    },
    {
      "hash": "0xed3e42df81f85c5c9cbd991240272b0ce8e06cfeb71b3bc6b08c1985f93d0f8b",
      "transactionType": "CREATE",
      "contractName": "FireXP",
      "contractAddress": "0xc9f8f74346bad84f10ee0648d8dedc7b900ec9e8",
      "function": null,
      "arguments": [
        "0x6698BF15bE0Abbdf4b0DcD60d97FcE7461DD9C1B"
      ],
      "transaction": {
        "from": "0x6698bf15be0abbdf4b0dcd60d97fce7461dd9c1b",
        "gas": "0x1347d3",
        "value": "0x0",
        "input": "0x61016080604052346104b257602081611669803803809161002082856104b6565b8339810103126104b257516001600160a01b038116908190036104b25760405161004b6040826104b6565b60068152602081016504669726558560d41b81526040519161006e6040846104b6565b600683526504669726558560d41b6020840152604051936100906040866104b6565b600385526204658560ec1b6020860152604051946100af6040876104b6565b60018652603160f81b60208701908152855190956001600160401b0382116103b55760035490600182811c921680156104a8575b60208310146103975781601f84931161043a575b50602090601f83116001146103d4575f926103c9575b50508160011b915f199060031b1c1916176003555b8051906001600160401b0382116103b55760045490600182811c921680156103ab575b60208310146103975781601f849311610329575b50602090601f83116001146102c3575f926102b8575b50508160011b915f199060031b1c1916176004555b80156102a557600580546001600160a01b0319811683179091556001600160a01b03167f8be0079c531659141344cd1fd0a4f28419497f9722a3daafe3b4186f6b6457e05f80a36101d4816104d9565b610120526101e184610660565b61014052519020918260e05251902080610100524660a0526040519060208201927f8b73c3c69bb8fe3d512ecc4cf759cc79239f7b179b0ffacaa9a75d522b39400f8452604083015260608201524660808201523060a082015260a0815261024a60c0826104b6565b5190206080523060c052604051610ed09081610799823960805181610b0e015260a05181610bcb015260c05181610ad8015260e05181610b5d01526101005181610b83015261012051816104510152610140518161047a0152f35b631e4fbdf760e01b5f525f60045260245ffd5b015190505f8061016f565b60045f9081528281209350601f198516905b81811061031157509084600195949392106102f9575b505050811b01600455610184565b01515f1960f88460031b161c191690555f80806102eb565b929360206001819287860151815501950193016102d5565b60045f529091507f8a35acfbc15ff81a39ae7d344fd709f28e8600b4aa8c65c6b64bfe7fe36bd19b601f840160051c8101916020851061038d575b90601f859493920160051c01905b81811061037f5750610159565b5f8155849350600101610372565b9091508190610364565b634e487b7160e01b5f52602260045260245ffd5b91607f1691610145565b634e487b7160e01b5f52604160045260245ffd5b015190505f8061010d565b60035f9081528281209350601f198516905b818110610422575090846001959493921061040a575b505050811b01600355610122565b01515f1960f88460031b161c191690555f80806103fc565b929360206001819287860151815501950193016103e6565b60035f529091507fc2575a0e9e593c00f959f8c92f12db2869c3395a3b0502d05e2516446f71f85b601f840160051c8101916020851061049e575b90601f859493920160051c01905b81811061049057506100f7565b5f8155849350600101610483565b9091508190610475565b91607f16916100e3565b5f80fd5b601f909101601f19168101906001600160401b038211908210176103b557604052565b908151602081105f14610553575090601f815111610513576020815191015160208210610504571790565b5f198260200360031b1b161790565b604460209160405192839163305a27a960e01b83528160048401528051918291826024860152018484015e5f828201840152601f01601f19168101030190fd5b6001600160401b0381116103b557600654600181811c91168015610656575b602082101461039757601f8111610623575b50602092601f82116001146105c257928192935f926105b7575b50508160011b915f199060031b1c19161760065560ff90565b015190505f8061059e565b601f1982169360065f52805f20915f5b86811061060b57508360019596106105f3575b505050811b0160065560ff90565b01515f1960f88460031b161c191690555f80806105e5565b919260206001819286850151815501940192016105d2565b60065f52601f60205f20910160051c810190601f830160051c015b81811061064b5750610584565b5f815560010161063e565b90607f1690610572565b908151602081105f1461068b575090601f815111610513576020815191015160208210610504571790565b6001600160401b0381116103b557600754600181811c9116801561078e575b602082101461039757601f811161075b575b50602092601f82116001146106fa57928192935f926106ef575b50508160011b915f199060031b1c19161760075560ff90565b015190505f806106d6565b601f1982169360075f52805f20915f5b868110610743575083600195961061072b575b505050811b0160075560ff90565b01515f1960f88460031b161c191690555f808061071d565b9192602060018192868501518155019401920161070a565b60075f52601f60205f20910160051c810190601f830160051c015b81811061078357506106bc565b5f8155600101610776565b90607f16906106aa56fe6080806040526004361015610012575f80fd5b5f3560e01c90816306fdde03146107b457508063095ea7b31461078357806318160ddd1461076657806323b872dd14610731578063313ce567146107165780633644e515146106f457806340c10f191461064857806342966c681461062b57806370a08231146105f4578063715018a61461059957806379cc6790146105695780637ecebe001461053157806384b0196e146104395780638da5cb5b1461041157806395d89b411461032f578063a9059cbb1461030c578063d505accf146101c7578063dd62ed3e146101775763f2fde38b146100ed575f80fd5b346101735760203660031901126101735761010661087a565b61010e610bf1565b6001600160a01b0316801561016057600580546001600160a01b0319811683179091556001600160a01b03167f8be0079c531659141344cd1fd0a4f28419497f9722a3daafe3b4186f6b6457e05f80a3005b631e4fbdf760e01b5f525f60045260245ffd5b5f80fd5b346101735760403660031901126101735761019061087a565b610198610890565b6001600160a01b039182165f908152600160209081526040808320949093168252928352819020549051908152f35b346101735760e0366003190112610173576101e061087a565b6101e8610890565b604435906064359260843560ff81168103610173578442116102f9576102bc6102c59160018060a01b03841696875f52600860205260405f20908154916001830190556040519060208201927f6e71edae12b1b97f4d1f60370fef10105fa2faae0126114a169c64845d6126c984528a604084015260018060a01b038916606084015289608084015260a083015260c082015260c0815261028a60e08261095f565b519020610295610ad5565b906040519161190160f01b83526002830152602282015260c43591604260a4359220610d99565b90929192610e26565b6001600160a01b03168481036102e257506102e09350610c9c565b005b84906325c0072360e11b5f5260045260245260445ffd5b8463313c898160e11b5f5260045260245ffd5b346101735760403660031901126101735761032561087a565b6024359033610a5e565b34610173575f366003190112610173576040515f60045461034f816108a6565b80845290600181169081156103ed575060011461038f575b61038b836103778185038261095f565b604051918291602083526020830190610856565b0390f35b60045f9081527f8a35acfbc15ff81a39ae7d344fd709f28e8600b4aa8c65c6b64bfe7fe36bd19b939250905b8082106103d357509091508101602001610377610367565b9192600181602092548385880101520191019092916103bb565b60ff191660208086019190915291151560051b840190910191506103779050610367565b34610173575f366003190112610173576005546040516001600160a01b039091168152602090f35b34610173575f366003190112610173576104d56104757f0000000000000000000000000000000000000000000000000000000000000000610cff565b61049e7f0000000000000000000000000000000000000000000000000000000000000000610d62565b60206104e3604051926104b1838561095f565b5f84525f368137604051958695600f60f81b875260e08588015260e0870190610856565b908582036040870152610856565b4660608501523060808501525f60a085015283810360c08501528180845192838152019301915f5b82811061051a57505050500390f35b83518552869550938101939281019260010161050b565b34610173576020366003190112610173576001600160a01b0361055261087a565b165f526008602052602060405f2054604051908152f35b34610173576040366003190112610173576102e061058561087a565b60243590610594823383610995565b610c18565b34610173575f366003190112610173576105b1610bf1565b600580546001600160a01b031981169091555f906001600160a01b03167f8be0079c531659141344cd1fd0a4f28419497f9722a3daafe3b4186f6b6457e08280a3005b34610173576020366003190112610173576001600160a01b0361061561087a565b165f525f602052602060405f2054604051908152f35b34610173576020366003190112610173576102e060043533610c18565b346101735760403660031901126101735761066161087a565b6024359061066d610bf1565b6001600160a01b03169081156106e157600254908082018092116106cd5760207fddf252ad1be2c89b69c2b068fc378daa952ba7f163c4a11628f55a4df523b3ef915f9360025584845283825260408420818154019055604051908152a3005b634e487b7160e01b5f52601160045260245ffd5b63ec442f0560e01b5f525f60045260245ffd5b34610173575f36600319011261017357602061070e610ad5565b604051908152f35b34610173575f36600319011261017357602060405160128152f35b346101735760603660031901126101735761074a61087a565b610752610890565b60443591610761833383610995565b610a5e565b34610173575f366003190112610173576020600254604051908152f35b34610173576040366003190112610173576107a961079f61087a565b6024359033610c9c565b602060405160018152f35b34610173575f366003190112610173575f6003546107d1816108a6565b80845290600181169081156103ed57506001146107f85761038b836103778185038261095f565b60035f9081527fc2575a0e9e593c00f959f8c92f12db2869c3395a3b0502d05e2516446f71f85b939250905b80821061083c57509091508101602001610377610367565b919260018160209254838588010152019101909291610824565b805180835260209291819084018484015e5f828201840152601f01601f1916010190565b600435906001600160a01b038216820361017357565b602435906001600160a01b038216820361017357565b90600182811c921680156108d4575b60208310146108c057565b634e487b7160e01b5f52602260045260245ffd5b91607f16916108b5565b5f92918154916108ed836108a6565b8083529260018116908115610942575060011461090957505050565b5f9081526020812093945091925b838310610928575060209250010190565b600181602092949394548385870101520191019190610917565b915050602093945060ff929192191683830152151560051b010190565b90601f8019910116810190811067ffffffffffffffff82111761098157604052565b634e487b7160e01b5f52604160045260245ffd5b6001600160a01b039081165f818152600160209081526040808320948616835293905291909120549291905f1984106109cf575b50505050565b828410610a3b578015610a28576001600160a01b03821615610a15575f52600160205260405f209060018060a01b03165f5260205260405f20910390555f8080806109c9565b634a1406b160e11b5f525f60045260245ffd5b63e602df0560e01b5f525f60045260245ffd5b508290637dc7a0d960e11b5f5260018060a01b031660045260245260445260645ffd5b9091506001600160a01b031615610ac2576001600160a01b0316156106e15760405162461bcd60e51b815260206004820152601c60248201527f4669726558503a207472616e73666572206e6f7420616c6c6f776564000000006044820152606490fd5b634b637e8f60e11b5f525f60045260245ffd5b307f00000000000000000000000000000000000000000000000000000000000000006001600160a01b03161480610bc8575b15610b30577f000000000000000000000000000000000000000000000000000000000000000090565b60405160208101907f8b73c3c69bb8fe3d512ecc4cf759cc79239f7b179b0ffacaa9a75d522b39400f82527f000000000000000000000000000000000000000000000000000000000000000060408201527f000000000000000000000000000000000000000000000000000000000000000060608201524660808201523060a082015260a08152610bc260c08261095f565b51902090565b507f00000000000000000000000000000000000000000000000000000000000000004614610b07565b6005546001600160a01b03163303610c0557565b63118cdaa760e01b5f523360045260245ffd5b9091906001600160a01b03168015610ac257805f525f60205260405f2054838110610c82576020845f94957fddf252ad1be2c89b69c2b068fc378daa952ba7f163c4a11628f55a4df523b3ef938587528684520360408620558060025403600255604051908152a3565b915063391434e360e21b5f5260045260245260445260645ffd5b6001600160a01b0316908115610a28576001600160a01b0316918215610a155760207f8c5be1e5ebec7d5bd14f71427d1e84f3dd0314c0f7b2291e5b200ac8c7c3b92591835f526001825260405f20855f5282528060405f2055604051908152a3565b60ff8114610d455760ff811690601f8211610d365760405191610d2360408461095f565b6020808452838101919036833783525290565b632cd44ac360e21b5f5260045ffd5b50604051610d5f81610d588160066108de565b038261095f565b90565b60ff8114610d865760ff811690601f8211610d365760405191610d2360408461095f565b50604051610d5f81610d588160076108de565b91907f7fffffffffffffffffffffffffffffff5d576e7357a4501ddfe92f46681b20a08411610e1b579160209360809260ff5f9560405194855216868401526040830152606082015282805260015afa15610e10575f516001600160a01b03811615610e0657905f905f90565b505f906001905f90565b6040513d5f823e3d90fd5b5050505f9160039190565b6004811015610e865780610e38575050565b60018103610e4f5763f645eedf60e01b5f5260045ffd5b60028103610e6a575063fce698f760e01b5f5260045260245ffd5b600314610e745750565b6335e2f38360e21b5f5260045260245ffd5b634e487b7160e01b5f52602160045260245ffdfea2646970667358221220320289ec77ccc44593432630e732d27927396f40ee33c5dd9c0c2e17dba77f8c64736f6c634300081c00330000000000000000000000006698bf15be0abbdf4b0dcd60d97fce7461dd9c1b",
        "nonce": "0xb",
        "chainId": "0x14a34"
      },
      "additionalContracts": [],
      "isFixedGasLimit": false
    },
    {
      "hash": "0x0d1f14c61d87286255c6b3a80af80332290fbb3db522e9f285c419a2f9d68c85",
      "transactionType": "CREATE",
      "contractName": "EUROPToken",
      "contractAddress": "0x2159692c92cd9358641d8eb9bed6d517544cb544",
      "function": null,
      "arguments": [
        "0x6698BF15bE0Abbdf4b0DcD60d97FcE7461DD9C1B"
      ],
      "transaction": {
        "from": "0x6698bf15be0abbdf4b0dcd60d97fce7461dd9c1b",
        "gas": "0x13878d",
        "value": "0x0",
        "input": "0x61016080604052346104bc576020816116ac803803809161002082856104c0565b8339810103126104bc57516001600160a01b038116908190036104bc5760405161004b6040826104c0565b600a8152602081016922aaa927a82a37b5b2b760b11b8152604051916100726040846104c0565b600a83526922aaa927a82a37b5b2b760b11b6020840152604051936100986040866104c0565b600585526404555524f560dc1b6020860152604051946100b96040876104c0565b60018652603160f81b60208701908152855190956001600160401b0382116103bf5760035490600182811c921680156104b2575b60208310146103a15781601f849311610444575b50602090601f83116001146103de575f926103d3575b50508160011b915f199060031b1c1916176003555b8051906001600160401b0382116103bf5760045490600182811c921680156103b5575b60208310146103a15781601f849311610333575b50602090601f83116001146102cd575f926102c2575b50508160011b915f199060031b1c1916176004555b80156102af57600580546001600160a01b0319811683179091556001600160a01b03167f8be0079c531659141344cd1fd0a4f28419497f9722a3daafe3b4186f6b6457e05f80a36101de816104e3565b610120526101eb8461066a565b61014052519020918260e05251902080610100524660a0526040519060208201927f8b73c3c69bb8fe3d512ecc4cf759cc79239f7b179b0ffacaa9a75d522b39400f8452604083015260608201524660808201523060a082015260a0815261025460c0826104c0565b5190206080523060c052604051610f0990816107a3823960805181610b47015260a05181610c04015260c05181610b11015260e05181610b9601526101005181610bbc0152610120518161045f015261014051816104880152f35b631e4fbdf760e01b5f525f60045260245ffd5b015190505f80610179565b60045f9081528281209350601f198516905b81811061031b5750908460019594939210610303575b505050811b0160045561018e565b01515f1960f88460031b161c191690555f80806102f5565b929360206001819287860151815501950193016102df565b60045f529091507f8a35acfbc15ff81a39ae7d344fd709f28e8600b4aa8c65c6b64bfe7fe36bd19b601f840160051c81019160208510610397575b90601f859493920160051c01905b8181106103895750610163565b5f815584935060010161037c565b909150819061036e565b634e487b7160e01b5f52602260045260245ffd5b91607f169161014f565b634e487b7160e01b5f52604160045260245ffd5b015190505f80610117565b60035f9081528281209350601f198516905b81811061042c5750908460019594939210610414575b505050811b0160035561012c565b01515f1960f88460031b161c191690555f8080610406565b929360206001819287860151815501950193016103f0565b60035f529091507fc2575a0e9e593c00f959f8c92f12db2869c3395a3b0502d05e2516446f71f85b601f840160051c810191602085106104a8575b90601f859493920160051c01905b81811061049a5750610101565b5f815584935060010161048d565b909150819061047f565b91607f16916100ed565b5f80fd5b601f909101601f19168101906001600160401b038211908210176103bf57604052565b908151602081105f1461055d575090601f81511161051d57602081519101516020821061050e571790565b5f198260200360031b1b161790565b604460209160405192839163305a27a960e01b83528160048401528051918291826024860152018484015e5f828201840152601f01601f19168101030190fd5b6001600160401b0381116103bf57600654600181811c91168015610660575b60208210146103a157601f811161062d575b50602092601f82116001146105cc57928192935f926105c1575b50508160011b915f199060031b1c19161760065560ff90565b015190505f806105a8565b601f1982169360065f52805f20915f5b86811061061557508360019596106105fd575b505050811b0160065560ff90565b01515f1960f88460031b161c191690555f80806105ef565b919260206001819286850151815501940192016105dc565b60065f52601f60205f20910160051c810190601f830160051c015b818110610655575061058e565b5f8155600101610648565b90607f169061057c565b908151602081105f14610695575090601f81511161051d57602081519101516020821061050e571790565b6001600160401b0381116103bf57600754600181811c91168015610798575b60208210146103a157601f8111610765575b50602092601f821160011461070457928192935f926106f9575b50508160011b915f199060031b1c19161760075560ff90565b015190505f806106e0565b601f1982169360075f52805f20915f5b86811061074d5750836001959610610735575b505050811b0160075560ff90565b01515f1960f88460031b161c191690555f8080610727565b91926020600181928685015181550194019201610714565b60075f52601f60205f20910160051c810190601f830160051c015b81811061078d57506106c6565b5f8155600101610780565b90607f16906106b456fe6080806040526004361015610012575f80fd5b5f3560e01c90816306fdde03146107ba57508063095ea7b31461079457806318160ddd1461077757806323b872dd1461073f578063313ce567146107245780633644e5151461070257806340c10f191461065657806342966c681461063957806370a0823114610602578063715018a6146105a757806379cc6790146105775780637ecebe001461053f57806384b0196e146104475780638da5cb5b1461041f57806395d89b411461033d578063a9059cbb1461030c578063d505accf146101c7578063dd62ed3e146101775763f2fde38b146100ed575f80fd5b3461017357602036600319011261017357610106610880565b61010e610c2a565b6001600160a01b0316801561016057600580546001600160a01b0319811683179091556001600160a01b03167f8be0079c531659141344cd1fd0a4f28419497f9722a3daafe3b4186f6b6457e05f80a3005b631e4fbdf760e01b5f525f60045260245ffd5b5f80fd5b3461017357604036600319011261017357610190610880565b610198610896565b6001600160a01b039182165f908152600160209081526040808320949093168252928352819020549051908152f35b346101735760e0366003190112610173576101e0610880565b6101e8610896565b604435906064359260843560ff81168103610173578442116102f9576102bc6102c59160018060a01b03841696875f52600860205260405f20908154916001830190556040519060208201927f6e71edae12b1b97f4d1f60370fef10105fa2faae0126114a169c64845d6126c984528a604084015260018060a01b038916606084015289608084015260a083015260c082015260c0815261028a60e082610965565b519020610295610b0e565b906040519161190160f01b83526002830152602282015260c43591604260a4359220610dd2565b90929192610e5f565b6001600160a01b03168481036102e257506102e09350610cd5565b005b84906325c0072360e11b5f5260045260245260445ffd5b8463313c898160e11b5f5260045260245ffd5b3461017357604036600319011261017357610332610328610880565b6024359033610a64565b602060405160018152f35b34610173575f366003190112610173576040515f60045461035d816108ac565b80845290600181169081156103fb575060011461039d575b6103998361038581850382610965565b60405191829160208352602083019061085c565b0390f35b60045f9081527f8a35acfbc15ff81a39ae7d344fd709f28e8600b4aa8c65c6b64bfe7fe36bd19b939250905b8082106103e157509091508101602001610385610375565b9192600181602092548385880101520191019092916103c9565b60ff191660208086019190915291151560051b840190910191506103859050610375565b34610173575f366003190112610173576005546040516001600160a01b039091168152602090f35b34610173575f366003190112610173576104e36104837f0000000000000000000000000000000000000000000000000000000000000000610d38565b6104ac7f0000000000000000000000000000000000000000000000000000000000000000610d9b565b60206104f1604051926104bf8385610965565b5f84525f368137604051958695600f60f81b875260e08588015260e087019061085c565b90858203604087015261085c565b4660608501523060808501525f60a085015283810360c08501528180845192838152019301915f5b82811061052857505050500390f35b835185528695509381019392810192600101610519565b34610173576020366003190112610173576001600160a01b03610560610880565b165f526008602052602060405f2054604051908152f35b34610173576040366003190112610173576102e0610593610880565b602435906105a282338361099b565b610c51565b34610173575f366003190112610173576105bf610c2a565b600580546001600160a01b031981169091555f906001600160a01b03167f8be0079c531659141344cd1fd0a4f28419497f9722a3daafe3b4186f6b6457e08280a3005b34610173576020366003190112610173576001600160a01b03610623610880565b165f525f602052602060405f2054604051908152f35b34610173576020366003190112610173576102e060043533610c51565b346101735760403660031901126101735761066f610880565b6024359061067b610c2a565b6001600160a01b03169081156106ef57600254908082018092116106db5760207fddf252ad1be2c89b69c2b068fc378daa952ba7f163c4a11628f55a4df523b3ef915f9360025584845283825260408420818154019055604051908152a3005b634e487b7160e01b5f52601160045260245ffd5b63ec442f0560e01b5f525f60045260245ffd5b34610173575f36600319011261017357602061071c610b0e565b604051908152f35b34610173575f36600319011261017357602060405160128152f35b346101735760603660031901126101735761033261075b610880565b610763610896565b6044359161077283338361099b565b610a64565b34610173575f366003190112610173576020600254604051908152f35b34610173576040366003190112610173576103326107b0610880565b6024359033610cd5565b34610173575f366003190112610173575f6003546107d7816108ac565b80845290600181169081156103fb57506001146107fe576103998361038581850382610965565b60035f9081527fc2575a0e9e593c00f959f8c92f12db2869c3395a3b0502d05e2516446f71f85b939250905b80821061084257509091508101602001610385610375565b91926001816020925483858801015201910190929161082a565b805180835260209291819084018484015e5f828201840152601f01601f1916010190565b600435906001600160a01b038216820361017357565b602435906001600160a01b038216820361017357565b90600182811c921680156108da575b60208310146108c657565b634e487b7160e01b5f52602260045260245ffd5b91607f16916108bb565b5f92918154916108f3836108ac565b8083529260018116908115610948575060011461090f57505050565b5f9081526020812093945091925b83831061092e575060209250010190565b60018160209294939454838587010152019101919061091d565b915050602093945060ff929192191683830152151560051b010190565b90601f8019910116810190811067ffffffffffffffff82111761098757604052565b634e487b7160e01b5f52604160045260245ffd5b6001600160a01b039081165f818152600160209081526040808320948616835293905291909120549291905f1984106109d5575b50505050565b828410610a41578015610a2e576001600160a01b03821615610a1b575f52600160205260405f209060018060a01b03165f5260205260405f20910390555f8080806109cf565b634a1406b160e11b5f525f60045260245ffd5b63e602df0560e01b5f525f60045260245ffd5b508290637dc7a0d960e11b5f5260018060a01b031660045260245260445260645ffd5b6001600160a01b0316908115610afb576001600160a01b03169182156106ef57815f525f60205260405f2054818110610ae257817fddf252ad1be2c89b69c2b068fc378daa952ba7f163c4a11628f55a4df523b3ef92602092855f525f84520360405f2055845f525f825260405f20818154019055604051908152a3565b8263391434e360e21b5f5260045260245260445260645ffd5b634b637e8f60e11b5f525f60045260245ffd5b307f00000000000000000000000000000000000000000000000000000000000000006001600160a01b03161480610c01575b15610b69577f000000000000000000000000000000000000000000000000000000000000000090565b60405160208101907f8b73c3c69bb8fe3d512ecc4cf759cc79239f7b179b0ffacaa9a75d522b39400f82527f000000000000000000000000000000000000000000000000000000000000000060408201527f000000000000000000000000000000000000000000000000000000000000000060608201524660808201523060a082015260a08152610bfb60c082610965565b51902090565b507f00000000000000000000000000000000000000000000000000000000000000004614610b40565b6005546001600160a01b03163303610c3e57565b63118cdaa760e01b5f523360045260245ffd5b9091906001600160a01b03168015610afb57805f525f60205260405f2054838110610cbb576020845f94957fddf252ad1be2c89b69c2b068fc378daa952ba7f163c4a11628f55a4df523b3ef938587528684520360408620558060025403600255604051908152a3565b915063391434e360e21b5f5260045260245260445260645ffd5b6001600160a01b0316908115610a2e576001600160a01b0316918215610a1b5760207f8c5be1e5ebec7d5bd14f71427d1e84f3dd0314c0f7b2291e5b200ac8c7c3b92591835f526001825260405f20855f5282528060405f2055604051908152a3565b60ff8114610d7e5760ff811690601f8211610d6f5760405191610d5c604084610965565b6020808452838101919036833783525290565b632cd44ac360e21b5f5260045ffd5b50604051610d9881610d918160066108e4565b0382610965565b90565b60ff8114610dbf5760ff811690601f8211610d6f5760405191610d5c604084610965565b50604051610d9881610d918160076108e4565b91907f7fffffffffffffffffffffffffffffff5d576e7357a4501ddfe92f46681b20a08411610e54579160209360809260ff5f9560405194855216868401526040830152606082015282805260015afa15610e49575f516001600160a01b03811615610e3f57905f905f90565b505f906001905f90565b6040513d5f823e3d90fd5b5050505f9160039190565b6004811015610ebf5780610e71575050565b60018103610e885763f645eedf60e01b5f5260045ffd5b60028103610ea3575063fce698f760e01b5f5260045260245ffd5b600314610ead5750565b6335e2f38360e21b5f5260045260245ffd5b634e487b7160e01b5f52602160045260245ffdfea26469706673582212209ad718035c550e12c9f6da516aedbe46ff1e7c159e1e3a482c5b083a0f1c719f64736f6c634300081c00330000000000000000000000006698bf15be0abbdf4b0dcd60d97fce7461dd9c1b",
        "nonce": "0xc",
        "chainId": "0x14a34"
      },
      "additionalContracts": [],
      "isFixedGasLimit": false
    },
    {
      "hash": "0x778f0827b61b57c5e47846e7039df6a2b0a984704712fc6d5698a389e1dd2b5a",
      "transactionType": "CREATE",
      "contractName": "ZharChallenges",
      "contractAddress": "0x5f83c882b6e5e6fb1d8445ac9346100f27b5bab9",
      "function": null,
      "arguments": [
        "0xC9F8f74346BaD84F10EE0648d8DeDc7b900EC9E8",
        "0x2159692C92Cd9358641d8Eb9beD6d517544cB544",
        "0x2159692C92Cd9358641d8Eb9beD6d517544cB544",
        "0x6698BF15bE0Abbdf4b0DcD60d97FcE7461DD9C1B"
      ],
      "transaction": {
        "from": "0x6698bf15be0abbdf4b0dcd60d97fce7461dd9c1b",
        "gas": "0x30a2e0",
        "value": "0x0",
        "input": "0x60c03461014057601f612b7138819003918201601f19168301916001600160401b03831184841017610144578084926080946040528339810103126101405761004781610158565b9061005460208201610158565b9161006d606061006660408501610158565b9301610158565b60015f556001600160a01b031692831561012d57600180546001600160a01b03198116861790915560405194906001600160a01b03167f8be0079c531659141344cd1fd0a4f28419497f9722a3daafe3b4186f6b6457e05f80a36001600160a01b0390811660a052908116608052600280546001600160a01b03191692909116919091179055612a04908161016d8239608051818181610bd80152611f9c015260a051818181610afa015281816110e60152818161131b015261182f0152f35b631e4fbdf760e01b5f525f60045260245ffd5b5f80fd5b634e487b7160e01b5f52604160045260245ffd5b51906001600160a01b03821682036101405756fe6080806040526004361015610012575f80fd5b5f905f3560e01c90816311da8e541461245e575080631c4a50641461243b57806320f7aa3f1461231f5780632af00510146120555780632b574316146120395780633f4ba83a14611fcb578063486e88d914611f875780634927d75314611d3b57806354de9bef146119635780635b7baf64146117745780635c975abb1461174f578063685f856e14611733578063715018a6146116d85780637abefdfc1461168757806380edbeb6146115a55780638456cb591461154457806388ecc3951461151c5780638da5cb5b146114f45780638f1d3776146113e9578063933166e11461134a578063935f1c4214611306578063a5ff0a13146112ae578063a9709c1914611042578063ae169a501461094d578063b9e9c8b414610930578063b9f8d3b41461057f578063dec9d80414610411578063e3ef7863146103f4578063e63ea4081461032a578063e6be9e3b14610227578063f2fde38b1461019e5763f7fed02c1461017e575f80fd5b3461019b578060031936011261019b576020600354604051908152f35b80fd5b503461019b57602036600319011261019b576101b86124df565b6101c0612935565b6001600160a01b0316801561021357600180546001600160a01b0319811683179091556001600160a01b03167f8be0079c531659141344cd1fd0a4f28419497f9722a3daafe3b4186f6b6457e08380a380f35b631e4fbdf760e01b82526004829052602482fd5b503461019b57602036600319011261019b5760043560035481111580610321575b61025190612738565b815260056020526040812090600f820190815461026d816128d1565b93600d01825b8281106102de57505060209260405191829483828795520191845260208420935b8181106102bc5750506102a99250038261253e565b6102b8604051928392836126db565b0390f35b84546001600160a01b0316835260019485019486945060209093019201610294565b806102ed6001928796976126b2565b838060a01b0391549060031b1c16828060a01b03165f528260205260405f20546103178289612903565b5201939293610273565b50801515610248565b503461019b57606036600319011261019b578060206103a261034a6124df565b6103526124f5565b61035a612935565b61036e6001600160a01b038216151561287b565b60405163a9059cbb60e01b81526001600160a01b039091166004820152604480356024830152909485938492839190820190565b03926001600160a01b03165af180156103e9576103bd575080f35b6103de9060203d6020116103e2575b6103d6818361253e565b810190612863565b5080f35b503d6103cc565b6040513d84823e3d90fd5b503461019b578060031936011261019b576020604051611b588152f35b503461019b57602036600319011261019b5760043560035481111580610576575b61043b90612738565b8152600560205260408120819082600f820193845492600e8101925b848110610528575061049461046b866128b9565b95610479604051978861253e565b808752601f19610488826128b9565b013660208901376128d1565b95825b8581106104ad57604051806102b88a8a836126db565b6104b781836126b2565b905460039190911b1c6001600160a01b03165f8181526020879052604090205460ff166104e8575b50600101610497565b8481610521926104fb600195988c612903565b52838060a01b03165f52600d850160205260405f205461051b828c612903565b52612821565b93906104df565b61053281886126b2565b905460039190911b1c6001600160a01b03165f9081526020859052604090205460ff16610562575b600101610457565b9461056e600191612821565b95905061055a565b50801515610432565b503461019b57604036600319011261019b5760043567ffffffffffffffff811161092c576105b1903690600401612560565b9060243567ffffffffffffffff811161092c576105d2903690600401612560565b338252600460205260ff6003604084200154166108f2578251156108b6573380835260046020526040832080546001600160a01b03191690911781558351909390600185019067ffffffffffffffff81116107f25761063182546125b6565b601f8111610871575b50806020601f8211600114610811578691610806575b508160011b915f199060031b1c19161790555b8151936002810167ffffffffffffffff86116107f25761068381546125b6565b601f81116107ad575b50602095601f8111600114610725579160039183610705959488997fc69c4b08ef3ac3499a548162bc0920f1f65d1559089f8c19d54ca0cb3b2651f698999161071a575b508160011b915f1990861b1c19161790555b01600160ff1982541617905561071460405192839260408452604084019061268e565b8281036020840152339561268e565b0390a280f35b90508801515f6106d0565b818652868620601f198216875b818110610795575082600394927fc69c4b08ef3ac3499a548162bc0920f1f65d1559089f8c19d54ca0cb3b2651f698999a6107059897956001941061077e575b5050811b0190556106e2565b8a01515f1983881b60f8161c191690555f80610772565b878a015183556020998a019960019093019201610732565b81865260208620601f880160051c810191602089106107e8575b601f0160051c01905b8181106107dd575061068c565b8681556001016107d0565b90915081906107c7565b634e487b7160e01b85526041600452602485fd5b90508301515f610650565b8387528087209150601f198316875b81811061085957509083600194939210610841575b5050811b019055610663565b8501515f1960f88460031b161c191690555f80610835565b9192602060018192868a015181550194019201610820565b82865260208620601f830160051c810191602084106108ac575b601f0160051c01905b8181106108a1575061063a565b868155600101610894565b909150819061088b565b60405162461bcd60e51b81526020600482015260146024820152734e616d652063616e6e6f7420626520656d70747960601b6044820152606490fd5b60405162461bcd60e51b8152602060048201526012602482015271105b1c9958591e481c9959da5cdd195c995960721b6044820152606490fd5b5080fd5b503461019b578060031936011261019b5760206040516113888152f35b5034610de4576020366003190112610de45760043560035481111580611039575b61097790612738565b61097f6129b0565b610987612917565b805f52600560205260405f2060ff600c82015416600581101561102557600103610fef57600a810154610fb8576109c76009820154600b83015490612784565b4210610f73576010810154906127108202918083046127101490151715610f215760040154906113888202918083046113881490151715610f215710610a1757610a109061295c565b6001815580f35b805f52600560205260405f209060048201805415610f3557600c8301805460ff1916600217905542600a8401555491821590611b588085029085820414831715610f21576127109004926101f485028581046101f414841715610f21576127109004926107d08602908682046107d0141715610f215761271090048368878678326eac900000821115610f1357610ac29150610abd68878678326eac9000008098612791565b612791565b848111610f0b575b5060018201805460405163a9059cbb60e01b81526001600160a01b039182166004820152602481018790529195917f0000000000000000000000000000000000000000000000000000000000000000909116906020816044815f865af1908115610dd9575f91610eec575b5015610ea757600284015460405163a9059cbb60e01b81526001600160a01b039091166004820152602481018890526020816044815f865af1908115610dd9575f91610e88575b5015610e435760025460405163a9059cbb60e01b81526001600160a01b0390911660048201526024810186905290602090829060449082905f905af1908115610dd9575f91610e24575b5015610de85784546001600160a01b037f00000000000000000000000000000000000000000000000000000000000000008116959116853b15610de4576040516340c10f1960e01b81526001600160a01b03919091166004820152602481018390525f81604481838a5af18015610dd957610dc4575b5060025488906001600160a01b0316863b1561092c576040516340c10f1960e01b81526001600160a01b03919091166004820152602481018390528181604481838b5af180156103e957610dab575b5096959695600d600f86019501965b8554811015610d445789610cae82886126b2565b905460039190911b1c6001600160a01b03165f81815260208b905260409020549081610ce0575b505050600101610c9a565b893b15610d40576040516340c10f1960e01b81526001600160a01b0391909116600482015260248101919091528181604481838d5af180156103e957610d27575b80610cd5565b81610d319161253e565b610d3c57895f610d21565b8980fd5b8280fd5b5091935091957f3ecc666ff01338b0f16250426d0970be81cd025aae938564094a6e1e96786d3095506060945060018060a01b039054168752600460205260046040882001610d938154612821565b905560405192835260208301526040820152a2610a10565b81610db59161253e565b610dc057875f610c8b565b8780fd5b610dd19198505f9061253e565b5f965f610c3c565b6040513d5f823e3d90fd5b5f80fd5b60405162461bcd60e51b81526020600482015260146024820152731119519a481d1c985b9cd9995c8819985a5b195960621b6044820152606490fd5b610e3d915060203d6020116103e2576103d6818361253e565b5f610bc6565b60405162461bcd60e51b815260206004820152601760248201527f49676e69746572207472616e73666572206661696c65640000000000000000006044820152606490fd5b610ea1915060203d6020116103e2576103d6818361253e565b5f610b7c565b60405162461bcd60e51b815260206004820152601860248201527f5a68617272696f72207472616e73666572206661696c656400000000000000006044820152606490fd5b610f05915060203d6020116103e2576103d6818361253e565b5f610b35565b93505f610aca565b610abd610ac2928098612791565b634e487b7160e01b5f52601160045260245ffd5b60405162461bcd60e51b81526020600482015260166024820152754e6f2066756e647320746f206469737472696275746560501b6044820152606490fd5b60405162461bcd60e51b815260206004820152601760248201527f4469737075746520706572696f64206e6f74206f7665720000000000000000006044820152606490fd5b60405162461bcd60e51b815260206004820152600f60248201526e105b1c9958591e4818db185a5b5959608a1b6044820152606490fd5b60405162461bcd60e51b815260206004820152600e60248201526d496e76616c69642073746174757360901b6044820152606490fd5b634e487b7160e01b5f52602160045260245ffd5b5080151561096e565b34610de4576040366003190112610de45760043560243590600354811115806112a5575b61106f90612738565b805f52600560205260ff600c60405f20015416600581101561102557611095901561279e565b805f5260056020526110af600660405f20015442106127e1565b6110b7612917565b8115611260576040516323b872dd60e01b8152336004820152306024820152604481018390526020816064815f7f00000000000000000000000000000000000000000000000000000000000000006001600160a01b03165af1908115610dd9575f91611241575b501561120a57805f52600560205260405f20600d81019060018060a01b0333165f528160205260405f2054156111ad575b60049160018060a01b0333165f5260205260405f2061116f858254612784565b90550161117d838254612784565b90556040519182527f0468b320dc5e60234d21d68dd98b49440a4de3e02571182f7ce9dd8bf80e4baf60203393a3005b600f810191825492600160401b8410156111f657836111d39160016004960181556126b2565b81546001600160a01b0360039290921b91821b19163390911b179055915061114f565b634e487b7160e01b5f52604160045260245ffd5b60405162461bcd60e51b815260206004820152600f60248201526e151c985b9cd9995c8819985a5b1959608a1b6044820152606490fd5b61125a915060203d6020116103e2576103d6818361253e565b8361111e565b60405162461bcd60e51b815260206004820152601d60248201527f416d6f756e74206d7573742062652067726561746572207468616e20300000006044820152606490fd5b50801515611066565b34610de4576040366003190112610de4576112c76124df565b6001600160a01b03165f90815260066020526040902080546024359190821015610de4576020916112f7916126b2565b90549060031b1c604051908152f35b34610de4575f366003190112610de4576040517f00000000000000000000000000000000000000000000000000000000000000006001600160a01b03168152602090f35b34610de4576020366003190112610de4576001600160a01b0361136b6124df565b165f90815260046020526040902080546001600160a01b0316611390600183016125ee565b9161139d600282016125ee565b6113d8600460ff600385015416930154916113ca604051968796875260a0602088015260a087019061268e565b90858203604087015261268e565b911515606084015260808301520390f35b34610de4576020366003190112610de4576004355f9081526005602052604090208054600182015460028301549192916001600160a01b039081169116611432600384016125ee565b91600484015492600585015493600686015490600787015460088801611457906125ee565b92600989015497600a8a015495600b8b015497600c8c015460ff169b6010015499604051809e81526020015260408d015260608c016101c090526101c08c0161149f9161268e565b9360808c015260a08b015260c08a015260e08901528781036101008901526114c69161268e565b9361012087015261014086015261016085015260058310156110255783926101808401526101a08301520390f35b34610de4575f366003190112610de4576001546040516001600160a01b039091168152602090f35b34610de4575f366003190112610de4576002546040516001600160a01b039091168152602090f35b34610de4575f366003190112610de45761155c612935565b611564612917565b6001805460ff60a01b1916600160a01b1790556040513381527f62e78cea01bee320cd4e420270b5ea74000d11b0c9f74754ebdbfc544b05a25890602090a1005b34610de4576040366003190112610de4576004356115c16124f5565b906003548111158061167e575b6115d790612738565b5f52600560205260405f209060ff600c8301541691600583101561102557600160209314918261165c575b82611638575b508161161a575b506040519015158152f35b61162f9150600b600982015491015490612784565b4211158261160f565b6001600160a01b03165f908152600e82018452604090205460ff1615915083611608565b6001600160a01b0381165f908152600d83018552604090205415159250611602565b508015156115ce565b34610de4576020366003190112610de4576116a06124df565b6116a8612935565b6001600160a01b03166116bc81151561287b565b6bffffffffffffffffffffffff60a01b60025416176002555f80f35b34610de4575f366003190112610de4576116f0612935565b600180546001600160a01b031981169091555f906001600160a01b03167f8be0079c531659141344cd1fd0a4f28419497f9722a3daafe3b4186f6b6457e08280a3005b34610de4575f366003190112610de45760206040516101f48152f35b34610de4575f366003190112610de457602060ff60015460a01c166040519015158152f35b34610de4576020366003190112610de4576004356003548111158061195a575b61179d90612738565b6117a56129b0565b6117ad612917565b5f52600560205260405f2060ff600c820154166005811015611025576004811490811561194f575b501561190a57600d0160018060a01b0333165f528060205260405f2054156118d057335f8181526020928352604080822080549290555163a9059cbb60e01b8152600481019290925260248201529081806044810103815f7f00000000000000000000000000000000000000000000000000000000000000006001600160a01b03165af1908115610dd9575f916118b1575b50156118735760015f55005b60405162461bcd60e51b81526020600482015260166024820152751499599d5b99081d1c985b9cd9995c8819985a5b195960521b6044820152606490fd5b6118ca915060203d6020116103e2576103d6818361253e565b81611867565b60405162461bcd60e51b8152602060048201526012602482015271139bc81cdd185ad9481d1bc81c99599d5b9960721b6044820152606490fd5b60405162461bcd60e51b815260206004820152601f60248201527f4368616c6c656e6765206e6f74206661696c6564206f722065787069726564006044820152606490fd5b6003915014826117d5565b50801515611794565b34610de45760a0366003190112610de45761197c6124df565b60243567ffffffffffffffff8111610de45761199c903690600401612560565b60443591606435608435916119af612917565b6001600160a01b03165f8181526004602052604090206003015490929060ff1615611cfd576201fa404201804211610f2157851115611ca1576123288211611c5c57835115611c1757611a03600354612821565b60038181555f8281526005602052604090209182556001820180546001600160a01b03199081168717909155600283018054909116331790558551969190810167ffffffffffffffff88116111f657611a5c81546125b6565b97601f8911611bd2575b6020985088601f8211600114611b4b5791817fdc8e5155c1f416e66c1e039bb31e38cad0242f7f56b75555f6596de893f83173959492600c945f91611b40575b508160011b915f199060031b1c19161790555b42600582015582600682015585600782015584600b8201550160ff198154169055335f5260068752611af160405f206003549061282f565b845f5260068752611b0860405f206003549061282f565b611b2c6003549687946040519384528984015260806040840152608083019061268e565b9360608201528033940390a4604051908152f35b90508a01518c611aa6565b601f19821690835f52805f20915f5b8b828210611bbb57505092600c9492600192827fdc8e5155c1f416e66c1e039bb31e38cad0242f7f56b75555f6596de893f8317399989610611ba3575b5050811b019055611ab9565b8c01515f1960f88460031b161c191690558c80611b97565b600184958f93958493015181550194019201611b5a565b815f5260205f20601f820160051c81019960208310611c0d575b601f0160051c01985b898110611c025750611a66565b5f8155600101611bf5565b9099508990611bec565b60405162461bcd60e51b815260206004820152601b60248201527f4465736372697074696f6e2063616e6e6f7420626520656d70747900000000006044820152606490fd5b60405162461bcd60e51b815260206004820152601960248201527f496e76616c6964207265776172642070657263656e74616765000000000000006044820152606490fd5b60405162461bcd60e51b815260206004820152602e60248201527f45787069726174696f6e206d757374206265206174206c65617374203336206860448201526d6f75727320696e2066757475726560901b6064820152608490fd5b60405162461bcd60e51b815260206004820152601660248201527510dc99585d1bdc881b9bdd081c9959da5cdd195c995960521b6044820152606490fd5b34610de4576020366003190112610de45760043560035481111580611f7e575b611d6490612738565b611d6c612917565b805f52600560205260405f2060ff600c82015416600581101561102557600103611f4357335f908152600d8201602081905260409091205415611efe57335f908152600e8301602081905260409091205460ff16611ec657611dd76009840154600b85015490612784565b4211611e8a57335f90815260209182526040808220805460ff1916600117905592909152205460108201805490929190611e12908290612784565b809355604051908152826020820152837f9d1b2e7ff1b2d9bd50ad7a9b56ed20b9e647256d83a3e47699de26cfa86a106e60403393a36127108202918083046127101490151715610f215760040154906113888202918083046113881490151715610f21571015611e7f57005b611e889061295c565b005b60405162461bcd60e51b8152602060048201526014602482015273111a5cdc1d5d19481c195c9a5bd908195b99195960621b6044820152606490fd5b60405162461bcd60e51b815260206004820152601060248201526f105b1c9958591e48191a5cdc1d5d195960821b6044820152606490fd5b60405162461bcd60e51b815260206004820152601860248201527f4f6e6c792073746f6b6572732063616e206469737075746500000000000000006044820152606490fd5b60405162461bcd60e51b81526020600482015260136024820152724e6f2070726f6f6620746f206469737075746560681b6044820152606490fd5b50801515611d5b565b34610de4575f366003190112610de4576040517f00000000000000000000000000000000000000000000000000000000000000006001600160a01b03168152602090f35b34610de4575f366003190112610de457611fe3612935565b60015460ff8160a01c161561202a5760ff60a01b19166001556040513381527f5db9ee0a495bf2e6ff9c91a7834c1ba4fdd244a5e8aa4e537bd38aeae4b073aa90602090a1005b638dfc202b60e01b5f5260045ffd5b34610de4575f366003190112610de45760206040516107d08152f35b34610de4576040366003190112610de45760043560243567ffffffffffffffff8111610de457612089903690600401612560565b9060035481111580612316575b61209f90612738565b6120a7612917565b5f81815260056020526040902060018101549092906001600160a01b031633036122c257600c830160ff8154166005811015611025576120e7901561279e565b6120f6600685015442106127e1565b81511561227d578151936008810167ffffffffffffffff86116111f65761211d81546125b6565b601f8111612238575b50602095601f81116001146121b05790816121a0959493927fc577bdeb8da1059fec56a8d1554e25846f18ebf046c214b145cac25f76bda35097985f916121a5575b508160011b915f199060031b1c19161790555b600942910155600160ff1982541617905560405191829160208352602083019061268e565b0390a2005b905085015189612168565b601f198116825f52875f20905f5b8181106122205750916001917fc577bdeb8da1059fec56a8d1554e25846f18ebf046c214b145cac25f76bda3509899826121a0999897969510612208575b5050811b01905561217b565b8701515f1960f88460031b161c1916905589806121fc565b878a015183556020998a0199600190930192016121be565b815f5260205f20601f880160051c81019160208910612273575b601f0160051c01905b8181106122685750612126565b5f815560010161225b565b9091508190612252565b60405162461bcd60e51b815260206004820152601960248201527f50726f6f66205552492063616e6e6f7420626520656d707479000000000000006044820152606490fd5b60405162461bcd60e51b815260206004820152602660248201527f4f6e6c792061737369676e65642063726561746f722063616e207375626d697460448201526510383937b7b360d11b6064820152608490fd5b50801515612096565b34610de4576020366003190112610de45760043560035481111580612432575b61234890612738565b5f90815260056020526040812060108101546004820154919290919081158061242b576127108402908482046127101485151715610f2157612417578290045b60ff600c8601541694600586101561102557600160a096148061240a575b6123d0575b5061138891926040519485526020850152806040850152101560608301526080820152f35b611388925080600b60096123e993015491015490612784565b8042105f14612403576123fd904290612791565b916123ab565b505f6123fd565b50600981015415156123a6565b634e487b7160e01b5f52601260045260245ffd5b505f612388565b5080151561233f565b34610de4575f366003190112610de457602060405168878678326eac9000008152f35b34610de4576020366003190112610de4576001600160a01b0361247f6124df565b165f52600660205260405f20805480835260208301915f5260205f20905f5b8181106124c9576102b8856124b58187038261253e565b60405191829160208352602083019061250b565b825484526020909301926001928301920161249e565b600435906001600160a01b0382168203610de457565b602435906001600160a01b0382168203610de457565b90602080835192838152019201905f5b8181106125285750505090565b825184526020938401939092019160010161251b565b90601f8019910116810190811067ffffffffffffffff8211176111f657604052565b81601f82011215610de45780359067ffffffffffffffff82116111f65760405192612595601f8401601f19166020018561253e565b82845260208383010111610de457815f926020809301838601378301015290565b90600182811c921680156125e4575b60208310146125d057565b634e487b7160e01b5f52602260045260245ffd5b91607f16916125c5565b9060405191825f825492612601846125b6565b808452936001811690811561266c5750600114612628575b506126269250038361253e565b565b90505f9291925260205f20905f915b818310612650575050906020612626928201015f612619565b6020919350806001915483858901015201910190918492612637565b90506020925061262694915060ff191682840152151560051b8201015f612619565b805180835260209291819084018484015e5f828201840152601f01601f1916010190565b80548210156126c7575f5260205f2001905f90565b634e487b7160e01b5f52603260045260245ffd5b9291604084019360408152825180955260206060820193015f955b808710612715575050612712939450602081840391015261250b565b90565b81516001600160a01b0316855260019690960195602094850194909101906126f6565b1561273f57565b60405162461bcd60e51b815260206004820152601860248201527f4368616c6c656e676520646f6573206e6f7420657869737400000000000000006044820152606490fd5b91908201809211610f2157565b91908203918211610f2157565b156127a557565b60405162461bcd60e51b81526020600482015260146024820152734368616c6c656e6765206e6f742061637469766560601b6044820152606490fd5b156127e857565b60405162461bcd60e51b815260206004820152601160248201527010da185b1b195b99d948195e1c1a5c9959607a1b6044820152606490fd5b5f198114610f215760010190565b8054600160401b8110156111f65761284c916001820181556126b2565b819291549060031b91821b915f19901b1916179055565b90816020910312610de457518015158103610de45790565b1561288257565b60405162461bcd60e51b815260206004820152600f60248201526e496e76616c6964206164647265737360881b6044820152606490fd5b67ffffffffffffffff81116111f65760051b60200190565b906128db826128b9565b6128e8604051918261253e565b82815280926128f9601f19916128b9565b0190602036910137565b80518210156126c75760209160051b010190565b60ff60015460a01c1661292657565b63d93c066560e01b5f5260045ffd5b6001546001600160a01b0316330361294957565b63118cdaa760e01b5f523360045260245ffd5b805f5260056020527f10ab5dcdbc065ef28e74deaa88c647c7c94b810c035fb8da57f739d2336eecc26040805f20600c8101600460ff198254161790556004601082015491015482519182526020820152a2565b60025f54146129bf5760025f55565b633ee5aeb560e01b5f5260045ffdfea2646970667358221220a1e4ca845cd0af1ff487384c02908a4ef5ab653c77f85b4636e8f3b614a53d5b64736f6c634300081c0033000000000000000000000000c9f8f74346bad84f10ee0648d8dedc7b900ec9e80000000000000000000000002159692c92cd9358641d8eb9bed6d517544cb5440000000000000000000000002159692c92cd9358641d8eb9bed6d517544cb5440000000000000000000000006698bf15be0abbdf4b0dcd60d97fce7461dd9c1b",
        "nonce": "0xd",
        "chainId": "0x14a34"
      },
      "additionalContracts": [],
      "isFixedGasLimit": false
    },
    {
      "hash": "0x3e3dcf07f4f9fcbd2eccaec6049e898335c3f314e7e4278c88b09e8b45994ca8",
      "transactionType": "CALL",
      "contractName": "FireXP",
      "contractAddress": "0xc9f8f74346bad84f10ee0648d8dedc7b900ec9e8",
      "function": "transferOwnership(address)",
      "arguments": [
        "0x5f83c882B6E5e6fb1D8445Ac9346100F27b5BaB9"
      ],
      "transaction": {
        "from": "0x6698bf15be0abbdf4b0dcd60d97fce7461dd9c1b",
        "to": "0xc9f8f74346bad84f10ee0648d8dedc7b900ec9e8",
        "gas": "0x9b5d",
        "value": "0x0",
        "input": "0xf2fde38b0000000000000000000000005f83c882b6e5e6fb1d8445ac9346100f27b5bab9",
        "nonce": "0xe",
        "chainId": "0x14a34"
      },
      "additionalContracts": [],
      "isFixedGasLimit": false
    },
    {
      "hash": "0xb8ebf96c9c34ac3a17a8590d1f22c8335907fe0c3279a3771a93bd857ad357e1",
      "transactionType": "CALL",
      "contractName": "EUROPToken",
      "contractAddress": "0x2159692c92cd9358641d8eb9bed6d517544cb544",
      "function": "mint(address,uint256)",
      "arguments": [
        "0x6698BF15bE0Abbdf4b0DcD60d97FcE7461DD9C1B",
        "1000000000000000000000000"
      ],
      "transaction": {
        "from": "0x6698bf15be0abbdf4b0dcd60d97fce7461dd9c1b",
        "to": "0x2159692c92cd9358641d8eb9bed6d517544cb544",
        "gas": "0x17b4c",
        "value": "0x0",
        "input": "0x40c10f190000000000000000000000006698bf15be0abbdf4b0dcd60d97fce7461dd9c1b00000000000000000000000000000000000000000000d3c21bcecceda1000000",
        "nonce": "0xf",
        "chainId": "0x14a34"
      },
      "additionalContracts": [],
      "isFixedGasLimit": false
    },
    {
      "hash": "0x926562541b2eeaf166fa7c92406108742e50dd731f50c9575b9215909f3cb055",
      "transactionType": "CALL",
      "contractName": "EUROPToken",
      "contractAddress": "0x2159692c92cd9358641d8eb9bed6d517544cb544",
      "function": "mint(address,uint256)",
      "arguments": [
        "0x6E9972213BF459853FA33E28Ab7219e9157C8d02",
        "100000000000000000000000"
      ],
      "transaction": {
        "from": "0x6698bf15be0abbdf4b0dcd60d97fce7461dd9c1b",
        "to": "0x2159692c92cd9358641d8eb9bed6d517544cb544",
        "gas": "0x11f1a",
        "value": "0x0",
        "input": "0x40c10f190000000000000000000000006e9972213bf459853fa33e28ab7219e9157c8d0200000000000000000000000000000000000000000000152d02c7e14af6800000",
        "nonce": "0x10",
        "chainId": "0x14a34"
      },
      "additionalContracts": [],
      "isFixedGasLimit": false
    },
    {
      "hash": "0xd4191677ea19db47d34e438a6556f7f67436c8b8cfe9c6ed8d4a7b8c94c2d4db",
      "transactionType": "CALL",
      "contractName": "EUROPToken",
      "contractAddress": "0x2159692c92cd9358641d8eb9bed6d517544cb544",
      "function": "mint(address,uint256)",
      "arguments": [
        "0xBa5359FaC9736E687C39D9613de3E8fa6C7af1ce",
        "100000000000000000000000"
      ],
      "transaction": {
        "from": "0x6698bf15be0abbdf4b0dcd60d97fce7461dd9c1b",
        "to": "0x2159692c92cd9358641d8eb9bed6d517544cb544",
        "gas": "0x11f1a",
        "value": "0x0",
        "input": "0x40c10f19000000000000000000000000ba5359fac9736e687c39d9613de3e8fa6c7af1ce00000000000000000000000000000000000000000000152d02c7e14af6800000",
        "nonce": "0x11",
        "chainId": "0x14a34"
      },
      "additionalContracts": [],
      "isFixedGasLimit": false
    },
    {
      "hash": "0xc4e54281be1561814ded41c9816fc6d3f129525622ae028fb3299faececb5f1b",
      "transactionType": "CALL",
      "contractName": "ZharChallenges",
      "contractAddress": "0x5f83c882b6e5e6fb1d8445ac9346100f27b5bab9",
      "function": "registerCreator(string,string)",
      "arguments": [
        "Zharrior1",
        "ipfs://meta1"
      ],
      "transaction": {
        "from": "0x6e9972213bf459853fa33e28ab7219e9157c8d02",
        "to": "0x5f83c882b6e5e6fb1d8445ac9346100f27b5bab9",
        "gas": "0x29632",
        "value": "0x0",
        "input": "0xb9f8d3b40000000000000000000000000000000000000000000000000000000000000040000000000000000000000000000000000000000000000000000000000000008000000000000000000000000000000000000000000000000000000000000000095a68617272696f72310000000000000000000000000000000000000000000000000000000000000000000000000000000000000000000000000000000000000c697066733a2f2f6d657461310000000000000000000000000000000000000000",
        "nonce": "0x8",
        "chainId": "0x14a34"
      },
      "additionalContracts": [],
      "isFixedGasLimit": false
    },
    {
      "hash": "0x95bc20197da154ca8ce20a48b56145d3d4dc81cd3f3d0a271b4d3a532fef0c9f",
      "transactionType": "CALL",
      "contractName": "ZharChallenges",
      "contractAddress": "0x5f83c882b6e5e6fb1d8445ac9346100f27b5bab9",
      "function": "createChallenge(address,string,uint256,uint256,uint256)",
      "arguments": [
        "0x6E9972213BF459853FA33E28Ab7219e9157C8d02",
        "Do something epic!",
        "1748193414",
        "7000",
        "0"
      ],
      "transaction": {
        "from": "0xba5359fac9736e687c39d9613de3e8fa6c7af1ce",
        "to": "0x5f83c882b6e5e6fb1d8445ac9346100f27b5bab9",
        "gas": "0x6c180",
        "value": "0x0",
        "input": "0x54de9bef0000000000000000000000006e9972213bf459853fa33e28ab7219e9157c8d0200000000000000000000000000000000000000000000000000000000000000a000000000000000000000000000000000000000000000000000000000683350860000000000000000000000000000000000000000000000000000000000001b5800000000000000000000000000000000000000000000000000000000000000000000000000000000000000000000000000000000000000000000000000000012446f20736f6d657468696e672065706963210000000000000000000000000000",
        "nonce": "0x7",
        "chainId": "0x14a34"
      },
      "additionalContracts": [],
      "isFixedGasLimit": false
    },
    {
      "hash": "0x75584d2892ac2e2e4125e9cff0cd112b8f3a470b62b31d7fdfab2925338ee5e5",
      "transactionType": "CALL",
      "contractName": "EUROPToken",
      "contractAddress": "0x2159692c92cd9358641d8eb9bed6d517544cb544",
      "function": "approve(address,uint256)",
      "arguments": [
        "0x5f83c882B6E5e6fb1D8445Ac9346100F27b5BaB9",
        "10000000000000000000000"
      ],
      "transaction": {
        "from": "0xba5359fac9736e687c39d9613de3e8fa6c7af1ce",
        "to": "0x2159692c92cd9358641d8eb9bed6d517544cb544",
        "gas": "0xf857",
        "value": "0x0",
        "input": "0x095ea7b30000000000000000000000005f83c882b6e5e6fb1d8445ac9346100f27b5bab900000000000000000000000000000000000000000000021e19e0c9bab2400000",
        "nonce": "0x8",
        "chainId": "0x14a34"
      },
      "additionalContracts": [],
      "isFixedGasLimit": false
    },
    {
      "hash": "0x5a0b8f4a6b9af01fcbfcdd2bf63a2c3a2cb2cb17b73cc9886fba52d7911f4f07",
      "transactionType": "CALL",
      "contractName": "ZharChallenges",
      "contractAddress": "0x5f83c882b6e5e6fb1d8445ac9346100f27b5bab9",
      "function": "depositToChallenge(uint256,uint256)",
      "arguments": [
        "1",
        "10000000000000000000000"
      ],
      "transaction": {
        "from": "0xba5359fac9736e687c39d9613de3e8fa6c7af1ce",
        "to": "0x5f83c882b6e5e6fb1d8445ac9346100f27b5bab9",
        "gas": "0x376d4",
        "value": "0x0",
        "input": "0xa9709c19000000000000000000000000000000000000000000000000000000000000000100000000000000000000000000000000000000000000021e19e0c9bab2400000",
        "nonce": "0x9",
        "chainId": "0x14a34"
      },
      "additionalContracts": [],
      "isFixedGasLimit": false
    },
    {
      "hash": "0x320e659fb1a01327d2794fb2e92613b77f31528b32cf7602207a111578b9d289",
      "transactionType": "CALL",
      "contractName": "EUROPToken",
      "contractAddress": "0x2159692c92cd9358641d8eb9bed6d517544cb544",
      "function": "approve(address,uint256)",
      "arguments": [
        "0x5f83c882B6E5e6fb1D8445Ac9346100F27b5BaB9",
        "10000000000000000000000"
      ],
      "transaction": {
        "from": "0x6e9972213bf459853fa33e28ab7219e9157c8d02",
        "to": "0x2159692c92cd9358641d8eb9bed6d517544cb544",
        "gas": "0xf857",
        "value": "0x0",
        "input": "0x095ea7b30000000000000000000000005f83c882b6e5e6fb1d8445ac9346100f27b5bab900000000000000000000000000000000000000000000021e19e0c9bab2400000",
        "nonce": "0x9",
        "chainId": "0x14a34"
      },
      "additionalContracts": [],
      "isFixedGasLimit": false
    },
    {
      "hash": "0x769b11bb1610126f31bf3442a95009246a81e11ef98b97805e7258d7cc624db4",
      "transactionType": "CALL",
      "contractName": "EUROPToken",
      "contractAddress": "0x2159692c92cd9358641d8eb9bed6d517544cb544",
      "function": "approve(address,uint256)",
      "arguments": [
        "0x5f83c882B6E5e6fb1D8445Ac9346100F27b5BaB9",
        "10000000000000000000000"
      ],
      "transaction": {
        "from": "0x6e9972213bf459853fa33e28ab7219e9157c8d02",
        "to": "0x2159692c92cd9358641d8eb9bed6d517544cb544",
        "gas": "0x8cf9",
        "value": "0x0",
        "input": "0x095ea7b30000000000000000000000005f83c882b6e5e6fb1d8445ac9346100f27b5bab900000000000000000000000000000000000000000000021e19e0c9bab2400000",
        "nonce": "0xa",
        "chainId": "0x14a34"
      },
      "additionalContracts": [],
      "isFixedGasLimit": false
    },
    {
      "hash": "0x625bf2e331811c69e73bf49ce8d2aaff91463d81d75940be6eeed40bf846096d",
      "transactionType": "CALL",
      "contractName": "ZharChallenges",
      "contractAddress": "0x5f83c882b6e5e6fb1d8445ac9346100f27b5bab9",
      "function": "submitProof(uint256,string)",
      "arguments": [
        "1",
        "ipfs://proof1"
      ],
      "transaction": {
        "from": "0x6e9972213bf459853fa33e28ab7219e9157c8d02",
        "to": "0x5f83c882b6e5e6fb1d8445ac9346100f27b5bab9",
        "gas": "0x21b8a",
        "value": "0x0",
        "input": "0x2af0051000000000000000000000000000000000000000000000000000000000000000010000000000000000000000000000000000000000000000000000000000000040000000000000000000000000000000000000000000000000000000000000000d697066733a2f2f70726f6f663100000000000000000000000000000000000000",
        "nonce": "0xb",
        "chainId": "0x14a34"
      },
      "additionalContracts": [],
      "isFixedGasLimit": false
    },
    {
      "hash": "0x501bc20d7b59e8b037a2961dfca566367ea8dc0916afe8d45d4a712a2a9f1d66",
      "transactionType": "CALL",
      "contractName": "ZharChallenges",
      "contractAddress": "0x5f83c882b6e5e6fb1d8445ac9346100f27b5bab9",
      "function": "claimReward(uint256)",
      "arguments": [
        "1"
      ],
      "transaction": {
        "from": "0x6e9972213bf459853fa33e28ab7219e9157c8d02",
        "to": "0x5f83c882b6e5e6fb1d8445ac9346100f27b5bab9",
        "gas": "0x544a8",
        "value": "0x0",
        "input": "0xae169a500000000000000000000000000000000000000000000000000000000000000001",
        "nonce": "0xc",
        "chainId": "0x14a34"
      },
      "additionalContracts": [],
      "isFixedGasLimit": false
    },
    {
      "hash": "0x17624ac1252f54e246ddab694de2315c6748af9e78678fff03d58455583a5849",
      "transactionType": "CALL",
      "contractName": "ZharChallenges",
      "contractAddress": "0x5f83c882b6e5e6fb1d8445ac9346100f27b5bab9",
      "function": "createChallenge(address,string,uint256,uint256,uint256)",
      "arguments": [
        "0x6E9972213BF459853FA33E28Ab7219e9157C8d02",
        "Do something else!",
        "1748193414",
        "7000",
        "1000"
      ],
      "transaction": {
        "from": "0xba5359fac9736e687c39d9613de3e8fa6c7af1ce",
        "to": "0x5f83c882b6e5e6fb1d8445ac9346100f27b5bab9",
        "gas": "0x60e41",
        "value": "0x0",
        "input": "0x54de9bef0000000000000000000000006e9972213bf459853fa33e28ab7219e9157c8d0200000000000000000000000000000000000000000000000000000000000000a000000000000000000000000000000000000000000000000000000000683350860000000000000000000000000000000000000000000000000000000000001b5800000000000000000000000000000000000000000000000000000000000003e80000000000000000000000000000000000000000000000000000000000000012446f20736f6d657468696e6720656c7365210000000000000000000000000000",
        "nonce": "0xa",
        "chainId": "0x14a34"
      },
      "additionalContracts": [],
      "isFixedGasLimit": false
    },
    {
      "hash": "0xafb69b31bdde29590ed6f966df07e184cd5dd6503e4faa9c718ffc9d6112518b",
      "transactionType": "CALL",
      "contractName": "EUROPToken",
      "contractAddress": "0x2159692c92cd9358641d8eb9bed6d517544cb544",
      "function": "approve(address,uint256)",
      "arguments": [
        "0x5f83c882B6E5e6fb1D8445Ac9346100F27b5BaB9",
        "10000000000000000000000"
      ],
      "transaction": {
        "from": "0xba5359fac9736e687c39d9613de3e8fa6c7af1ce",
        "to": "0x2159692c92cd9358641d8eb9bed6d517544cb544",
        "gas": "0xf857",
        "value": "0x0",
        "input": "0x095ea7b30000000000000000000000005f83c882b6e5e6fb1d8445ac9346100f27b5bab900000000000000000000000000000000000000000000021e19e0c9bab2400000",
        "nonce": "0xb",
        "chainId": "0x14a34"
      },
      "additionalContracts": [],
      "isFixedGasLimit": false
    },
    {
      "hash": "0x847ae2458cd7ae6815dfe5cf3818e26bbc07f9e9ffffb9b736e78490409706e4",
      "transactionType": "CALL",
      "contractName": "ZharChallenges",
      "contractAddress": "0x5f83c882b6e5e6fb1d8445ac9346100f27b5bab9",
      "function": "depositToChallenge(uint256,uint256)",
      "arguments": [
        "2",
        "10000000000000000000000"
      ],
      "transaction": {
        "from": "0xba5359fac9736e687c39d9613de3e8fa6c7af1ce",
        "to": "0x5f83c882b6e5e6fb1d8445ac9346100f27b5bab9",
        "gas": "0x376d4",
        "value": "0x0",
        "input": "0xa9709c19000000000000000000000000000000000000000000000000000000000000000200000000000000000000000000000000000000000000021e19e0c9bab2400000",
        "nonce": "0xc",
        "chainId": "0x14a34"
      },
      "additionalContracts": [],
      "isFixedGasLimit": false
    },
    {
      "hash": "0xd3a4869e7e313c33342d2ad0e58cf2e923af59d474890228e3c38093989e0981",
      "transactionType": "CALL",
      "contractName": "EUROPToken",
      "contractAddress": "0x2159692c92cd9358641d8eb9bed6d517544cb544",
      "function": "approve(address,uint256)",
      "arguments": [
        "0x5f83c882B6E5e6fb1D8445Ac9346100F27b5BaB9",
        "10000000000000000000000"
      ],
      "transaction": {
        "from": "0x6e9972213bf459853fa33e28ab7219e9157c8d02",
        "to": "0x2159692c92cd9358641d8eb9bed6d517544cb544",
        "gas": "0x8cf9",
        "value": "0x0",
        "input": "0x095ea7b30000000000000000000000005f83c882b6e5e6fb1d8445ac9346100f27b5bab900000000000000000000000000000000000000000000021e19e0c9bab2400000",
        "nonce": "0xd",
        "chainId": "0x14a34"
      },
      "additionalContracts": [],
      "isFixedGasLimit": false
    },
    {
      "hash": "0x4b08ea815e1cc1d98f6aed19fcc5f0da2d424ad3f2f8626d34826084fc153f30",
      "transactionType": "CALL",
      "contractName": "EUROPToken",
      "contractAddress": "0x2159692c92cd9358641d8eb9bed6d517544cb544",
      "function": "approve(address,uint256)",
      "arguments": [
        "0x5f83c882B6E5e6fb1D8445Ac9346100F27b5BaB9",
        "10000000000000000000000"
      ],
      "transaction": {
        "from": "0x6e9972213bf459853fa33e28ab7219e9157c8d02",
        "to": "0x2159692c92cd9358641d8eb9bed6d517544cb544",
        "gas": "0x8cf9",
        "value": "0x0",
        "input": "0x095ea7b30000000000000000000000005f83c882b6e5e6fb1d8445ac9346100f27b5bab900000000000000000000000000000000000000000000021e19e0c9bab2400000",
        "nonce": "0xe",
        "chainId": "0x14a34"
      },
      "additionalContracts": [],
      "isFixedGasLimit": false
    },
    {
      "hash": "0x464cfe23e9e2a0dcaf83d5643e4834b4b7bd3d6d7992afbf85dee0b40f752a05",
      "transactionType": "CALL",
      "contractName": "ZharChallenges",
      "contractAddress": "0x5f83c882b6e5e6fb1d8445ac9346100f27b5bab9",
      "function": "submitProof(uint256,string)",
      "arguments": [
        "2",
        "ipfs://proof2"
      ],
      "transaction": {
        "from": "0x6e9972213bf459853fa33e28ab7219e9157c8d02",
        "to": "0x5f83c882b6e5e6fb1d8445ac9346100f27b5bab9",
        "gas": "0x21b8a",
        "value": "0x0",
        "input": "0x2af0051000000000000000000000000000000000000000000000000000000000000000020000000000000000000000000000000000000000000000000000000000000040000000000000000000000000000000000000000000000000000000000000000d697066733a2f2f70726f6f663200000000000000000000000000000000000000",
        "nonce": "0xf",
        "chainId": "0x14a34"
      },
      "additionalContracts": [],
      "isFixedGasLimit": false
    },
    {
      "hash": "0x8cdf3ae5097e1eb892c6f42c4c953bf83ed1238999c012f94e81084dfef6525d",
      "transactionType": "CALL",
      "contractName": "ZharChallenges",
      "contractAddress": "0x5f83c882b6e5e6fb1d8445ac9346100f27b5bab9",
      "function": "disputeProof(uint256)",
      "arguments": [
        "2"
      ],
      "transaction": {
        "from": "0xba5359fac9736e687c39d9613de3e8fa6c7af1ce",
        "to": "0x5f83c882b6e5e6fb1d8445ac9346100f27b5bab9",
        "gas": "0x1fa5a",
        "value": "0x0",
        "input": "0x4927d7530000000000000000000000000000000000000000000000000000000000000002",
        "nonce": "0xd",
        "chainId": "0x14a34"
      },
      "additionalContracts": [],
      "isFixedGasLimit": false
    },
    {
      "hash": "0xd1bbf3a2e47f0b829aeb0cf39aec9c50ba6910ef4aebd750c086fb1115c78db9",
      "transactionType": "CALL",
      "contractName": "ZharChallenges",
      "contractAddress": "0x5f83c882b6e5e6fb1d8445ac9346100f27b5bab9",
      "function": "claimRefund(uint256)",
      "arguments": [
        "2"
      ],
      "transaction": {
        "from": "0xba5359fac9736e687c39d9613de3e8fa6c7af1ce",
        "to": "0x5f83c882b6e5e6fb1d8445ac9346100f27b5bab9",
        "gas": "0xea48",
        "value": "0x0",
        "input": "0x5b7baf640000000000000000000000000000000000000000000000000000000000000002",
        "nonce": "0xe",
        "chainId": "0x14a34"
      },
      "additionalContracts": [],
      "isFixedGasLimit": false
    }
  ],
  "receipts": [
    {
      "status": "0x1",
      "cumulativeGasUsed": "0x790e4e",
      "logs": [],
      "logsBloom": "0x00000000000000000000000000000000000000000000000000000000000000000000000000000000000000000000000000000000000000000000000000000000000000000000000000000000000000000000000000000000000000000000000000000000000000000000000000000000000000000000000000000000000000000000000000000000000000000000000000000000000000000000000000000000000000000000000000000000000000000000000000000000000000000000000000000000000000000000000000000000000000000000000000000000000000000000000000000000000000000000000000000000000000000000000000000000",
      "type": "0x2",
      "transactionHash": "0x29df8e7b43ef38afe8d046ee2e69cae544107f39223655d9ad5cc5930c8f81f7",
      "transactionIndex": "0x8d",
      "blockHash": "0xb27ba4acef196eeb658617642cd8e8828680c138bde53c5d8998707a343e3697",
      "blockNumber": "0x18ea758",
      "gasUsed": "0x5208",
      "effectiveGasPrice": "0xbcb98e8",
      "from": "0x6698bf15be0abbdf4b0dcd60d97fce7461dd9c1b",
      "to": "0x6e9972213bf459853fa33e28ab7219e9157c8d02",
      "contractAddress": null,
      "l1BaseFeeScalar": "0x44d",
      "l1BlobBaseFee": "0x1",
      "l1BlobBaseFeeScalar": "0xa118b",
      "l1Fee": "0xd7d",
      "l1GasPrice": "0x783",
      "l1GasUsed": "0x640"
    },
    {
      "status": "0x1",
      "cumulativeGasUsed": "0xb7ce66",
      "logs": [],
      "logsBloom": "0x00000000000000000000000000000000000000000000000000000000000000000000000000000000000000000000000000000000000000000000000000000000000000000000000000000000000000000000000000000000000000000000000000000000000000000000000000000000000000000000000000000000000000000000000000000000000000000000000000000000000000000000000000000000000000000000000000000000000000000000000000000000000000000000000000000000000000000000000000000000000000000000000000000000000000000000000000000000000000000000000000000000000000000000000000000000",
      "type": "0x2",
      "transactionHash": "0x5ef86fbb3f4ec145e3b8ebfafaaabeb4a4f8e42df4f2b76831079285c790c1df",
      "transactionIndex": "0xb8",
      "blockHash": "0xef7f7c6e7eedc8487cc005f079d59295d55d964b13cf38db4a3d8b0e72a0803d",
      "blockNumber": "0x18ea759",
      "gasUsed": "0x5208",
      "effectiveGasPrice": "0xe2dcf",
      "from": "0x6698bf15be0abbdf4b0dcd60d97fce7461dd9c1b",
      "to": "0xba5359fac9736e687c39d9613de3e8fa6c7af1ce",
      "contractAddress": null,
      "l1BaseFeeScalar": "0x44d",
      "l1BlobBaseFee": "0x1",
      "l1BlobBaseFeeScalar": "0xa118b",
      "l1Fee": "0xd7d",
      "l1GasPrice": "0x783",
      "l1GasUsed": "0x640"
    },
    {
      "status": "0x1",
      "cumulativeGasUsed": "0x829908",
      "logs": [
        {
          "address": "0xc9f8f74346bad84f10ee0648d8dedc7b900ec9e8",
          "topics": [
            "0x8be0079c531659141344cd1fd0a4f28419497f9722a3daafe3b4186f6b6457e0",
            "0x0000000000000000000000000000000000000000000000000000000000000000",
            "0x0000000000000000000000006698bf15be0abbdf4b0dcd60d97fce7461dd9c1b"
          ],
          "data": "0x",
          "blockHash": "0x43b82170a8a29d291e0b223ed9ce33c315f8845afea49fa90db1d598761e3300",
          "blockNumber": "0x18ea75a",
          "blockTimestamp": "0x6830ad94",
          "transactionHash": "0xed3e42df81f85c5c9cbd991240272b0ce8e06cfeb71b3bc6b08c1985f93d0f8b",
          "transactionIndex": "0x84",
          "logIndex": "0x3d",
          "removed": false
        }
      ],
      "logsBloom": "0x00000000000000000000000000000000000000000000000002800010000000000000000000000000000000000000000000000000000000000000000000000000000000000000000000000000000000000001000000000000000000000000000000000000020000000000000000000800000000000000000000000000000000400000000000000040000000000400000000000000000000000000000000000000000000000000000000000000000000000000000000000000000000000000000000000000000000000000000000000000000000000000800000000000000020000000000000000000000000000000000000000000000010000000000000000000",
      "type": "0x2",
      "transactionHash": "0xed3e42df81f85c5c9cbd991240272b0ce8e06cfeb71b3bc6b08c1985f93d0f8b",
      "transactionIndex": "0x84",
      "blockHash": "0x43b82170a8a29d291e0b223ed9ce33c315f8845afea49fa90db1d598761e3300",
      "blockNumber": "0x18ea75a",
      "gasUsed": "0xed4ca",
      "effectiveGasPrice": "0xe2dcf",
      "from": "0x6698bf15be0abbdf4b0dcd60d97fce7461dd9c1b",
      "to": null,
      "contractAddress": "0xc9f8f74346bad84f10ee0648d8dedc7b900ec9e8",
      "l1BaseFeeScalar": "0x44d",
      "l1BlobBaseFee": "0x1",
      "l1BlobBaseFeeScalar": "0xa118b",
      "l1Fee": "0x1b719",
      "l1GasPrice": "0x783",
      "l1GasUsed": "0xcb6e"
    },
    {
      "status": "0x1",
      "cumulativeGasUsed": "0x722734",
      "logs": [
        {
          "address": "0x2159692c92cd9358641d8eb9bed6d517544cb544",
          "topics": [
            "0x8be0079c531659141344cd1fd0a4f28419497f9722a3daafe3b4186f6b6457e0",
            "0x0000000000000000000000000000000000000000000000000000000000000000",
            "0x0000000000000000000000006698bf15be0abbdf4b0dcd60d97fce7461dd9c1b"
          ],
          "data": "0x",
          "blockHash": "0xbdfe1264cdb827f1bafcf6954b115d17f7487a595eb6d06cd09443423bdae4d7",
          "blockNumber": "0x18ea75b",
          "transactionHash": "0x0d1f14c61d87286255c6b3a80af80332290fbb3db522e9f285c419a2f9d68c85",
          "transactionIndex": "0x72",
          "logIndex": "0x22",
          "removed": false
        }
      ],
      "logsBloom": "0x00000000000000000000000000000000000000000000000002800010000000000000000000000000000000000000000000000000000000000000000000000000000000000000000000000000000000000001000000000000000000000000000000000000020000000000000000000800000000000000000000000000000000400000000000000000000000000400000000000000000000002000000000000000000000000000000000000000000000000000000000000000000000000000000000000000000000000000000000000000000010000000000040000000000020000000000000000000000000000000000000000000000000000000000000000000",
      "type": "0x2",
      "transactionHash": "0x0d1f14c61d87286255c6b3a80af80332290fbb3db522e9f285c419a2f9d68c85",
      "transactionIndex": "0x72",
      "blockHash": "0xbdfe1264cdb827f1bafcf6954b115d17f7487a595eb6d06cd09443423bdae4d7",
      "blockNumber": "0x18ea75b",
      "gasUsed": "0xf05cf",
      "effectiveGasPrice": "0xbc7f52f",
      "from": "0x6698bf15be0abbdf4b0dcd60d97fce7461dd9c1b",
      "to": null,
      "contractAddress": "0x2159692c92cd9358641d8eb9bed6d517544cb544",
      "l1BaseFeeScalar": "0x44d",
      "l1BlobBaseFee": "0x1",
      "l1BlobBaseFeeScalar": "0xa118b",
      "l1Fee": "0x1e9d8",
      "l1GasPrice": "0x872",
      "l1GasUsed": "0xca47"
    },
    {
      "status": "0x1",
      "cumulativeGasUsed": "0xe0e16b",
      "logs": [
        {
          "address": "0x5f83c882b6e5e6fb1d8445ac9346100f27b5bab9",
          "topics": [
            "0x8be0079c531659141344cd1fd0a4f28419497f9722a3daafe3b4186f6b6457e0",
            "0x0000000000000000000000000000000000000000000000000000000000000000",
            "0x0000000000000000000000006698bf15be0abbdf4b0dcd60d97fce7461dd9c1b"
          ],
          "data": "0x",
          "blockHash": "0xbabdcf4c7d8ca77dc89a33d6b375e265066427c25f3ccd51df5f44b46bf661d7",
          "blockNumber": "0x18ea75c",
          "blockTimestamp": "0x6830ad98",
          "transactionHash": "0x778f0827b61b57c5e47846e7039df6a2b0a984704712fc6d5698a389e1dd2b5a",
          "transactionIndex": "0xb4",
          "logIndex": "0x63",
          "removed": false
        }
      ],
      "logsBloom": "0x00000000000000000000000000000000000000000000000002800010000000000000000000000000000000000000000000020000000000000000000000000000000000000000000000000000000000000001000000000000000000000000000000000000020000000000000000000800000000000000000000000000000000400000000000000000000000000400000000000000000000000000000000000000000000000000000000000000000000000000000000000000000000000000000000020000000000000000000040000000000000000000000000000000000020000000000000000000000000000000000000000000000000000000000000000000",
      "type": "0x2",
      "transactionHash": "0x778f0827b61b57c5e47846e7039df6a2b0a984704712fc6d5698a389e1dd2b5a",
      "transactionIndex": "0xb4",
      "blockHash": "0xbabdcf4c7d8ca77dc89a33d6b375e265066427c25f3ccd51df5f44b46bf661d7",
      "blockNumber": "0x18ea75c",
      "gasUsed": "0x256999",
      "effectiveGasPrice": "0xe2dcf",
      "from": "0x6698bf15be0abbdf4b0dcd60d97fce7461dd9c1b",
      "to": null,
      "contractAddress": "0x5f83c882b6e5e6fb1d8445ac9346100f27b5bab9",
      "l1BaseFeeScalar": "0x44d",
      "l1BlobBaseFee": "0x1",
      "l1BlobBaseFeeScalar": "0xa118b",
      "l1Fee": "0x3b8b5",
      "l1GasPrice": "0x872",
      "l1GasUsed": "0x1896b"
    },
    {
      "status": "0x1",
      "cumulativeGasUsed": "0x997e08",
      "logs": [
        {
          "address": "0xc9f8f74346bad84f10ee0648d8dedc7b900ec9e8",
          "topics": [
            "0x8be0079c531659141344cd1fd0a4f28419497f9722a3daafe3b4186f6b6457e0",
            "0x0000000000000000000000006698bf15be0abbdf4b0dcd60d97fce7461dd9c1b",
            "0x0000000000000000000000005f83c882b6e5e6fb1d8445ac9346100f27b5bab9"
          ],
          "data": "0x",
          "blockHash": "0xe407c010dcbf61c57632d73b7290bcd7f9a9f5185d1fbae1ec0b4c617583e0c3",
          "blockNumber": "0x18ea75d",
          "blockTimestamp": "0x6830ad9a",
          "transactionHash": "0x3e3dcf07f4f9fcbd2eccaec6049e898335c3f314e7e4278c88b09e8b45994ca8",
          "transactionIndex": "0xa2",
          "logIndex": "0x5f",
          "removed": false
        }
      ],
      "logsBloom": "0x00040000000000000000000000000000000000000000000002800010000000000000000000000000000000000000000000008000000000000000000000000000000000000000000000000000000000000001000000000000000000000000000000000000000000000000000000000000000000000000000000000000000000400000000000000040000000000400000000000000000000000000000000000000000000000000000000000000000000000000000000002000000000000000000000000000000000000000000000000000000000000000800000000000000000000000000000000000000000000000000000000000000010000000000000000000",
      "type": "0x2",
      "transactionHash": "0x3e3dcf07f4f9fcbd2eccaec6049e898335c3f314e7e4278c88b09e8b45994ca8",
      "transactionIndex": "0xa2",
      "blockHash": "0xe407c010dcbf61c57632d73b7290bcd7f9a9f5185d1fbae1ec0b4c617583e0c3",
      "blockNumber": "0x18ea75d",
      "gasUsed": "0x707c",
      "effectiveGasPrice": "0xe2dcf",
      "from": "0x6698bf15be0abbdf4b0dcd60d97fce7461dd9c1b",
      "to": "0xc9f8f74346bad84f10ee0648d8dedc7b900ec9e8",
      "contractAddress": null,
      "l1BaseFeeScalar": "0x44d",
      "l1BlobBaseFee": "0x1",
      "l1BlobBaseFeeScalar": "0xa118b",
      "l1Fee": "0xf22",
      "l1GasPrice": "0x872",
      "l1GasUsed": "0x640"
    },
    {
      "status": "0x1",
      "cumulativeGasUsed": "0xdde6f9",
      "logs": [
        {
          "address": "0x2159692c92cd9358641d8eb9bed6d517544cb544",
          "topics": [
            "0xddf252ad1be2c89b69c2b068fc378daa952ba7f163c4a11628f55a4df523b3ef",
            "0x0000000000000000000000000000000000000000000000000000000000000000",
            "0x0000000000000000000000006698bf15be0abbdf4b0dcd60d97fce7461dd9c1b"
          ],
          "data": "0x00000000000000000000000000000000000000000000d3c21bcecceda1000000",
          "blockHash": "0x9fee7569795b0cf84721d0005223a87fde88961947237c6cd008706b26f9d12a",
          "blockNumber": "0x18ea75e",
          "blockTimestamp": "0x6830ad9c",
          "transactionHash": "0xb8ebf96c9c34ac3a17a8590d1f22c8335907fe0c3279a3771a93bd857ad357e1",
          "transactionIndex": "0xd5",
          "logIndex": "0xb3",
          "removed": false
        }
      ],
      "logsBloom": "0x00000000000000000000000000000000000000000000000002000010000000000000000000000000000000000000000000000000000000000000000000000000000000000000000000000008000000000000000000000000000000000000000000000000020000000000000000000800000000000000000000000010000000000000000000000000000000000400000000000000000000002000000000000000000000000000000000000000000000000000000000000000000000000000000000000002000000000000000000000000000010000000000040000000000020000000000000000000000000000000000000000000000000000000000000000000",
      "type": "0x2",
      "transactionHash": "0xb8ebf96c9c34ac3a17a8590d1f22c8335907fe0c3279a3771a93bd857ad357e1",
      "transactionIndex": "0xd5",
      "blockHash": "0x9fee7569795b0cf84721d0005223a87fde88961947237c6cd008706b26f9d12a",
      "blockNumber": "0x18ea75e",
      "gasUsed": "0x1129c",
      "effectiveGasPrice": "0xe2dcf",
      "from": "0x6698bf15be0abbdf4b0dcd60d97fce7461dd9c1b",
      "to": "0x2159692c92cd9358641d8eb9bed6d517544cb544",
      "contractAddress": null,
      "l1BaseFeeScalar": "0x44d",
      "l1BlobBaseFee": "0x1",
      "l1BlobBaseFeeScalar": "0xa118b",
      "l1Fee": "0xf22",
      "l1GasPrice": "0x872",
      "l1GasUsed": "0x640"
    },
    {
      "status": "0x1",
      "cumulativeGasUsed": "0xabd546",
      "logs": [
        {
          "address": "0x2159692c92cd9358641d8eb9bed6d517544cb544",
          "topics": [
            "0xddf252ad1be2c89b69c2b068fc378daa952ba7f163c4a11628f55a4df523b3ef",
            "0x0000000000000000000000000000000000000000000000000000000000000000",
            "0x0000000000000000000000006e9972213bf459853fa33e28ab7219e9157c8d02"
          ],
          "data": "0x00000000000000000000000000000000000000000000152d02c7e14af6800000",
          "blockHash": "0xe70ef2d768b3a9c1b414f5567921a9a121ca11919b6292c136d3bf518e61609d",
          "blockNumber": "0x18ea75f",
          "transactionHash": "0x926562541b2eeaf166fa7c92406108742e50dd731f50c9575b9215909f3cb055",
          "transactionIndex": "0xb9",
          "logIndex": "0x3d",
          "removed": false
        }
      ],
      "logsBloom": "0x00000000000000000000000000000000000000000000000000000000000000000000000000000000000000000000000000000000000000000000000000000000000000000000000000000008000000000000000000000000000000000000000000000000020000000000000000000800000000000000000000000010000000000000000000000000000000000000000000000000200000002000000000000000000000001000001000000000000000000000000000000000000000000000000000000002000000000000000000000000000010000000000040000000000020000000000000000000000000000000000000000000000000000000000000000000",
      "type": "0x2",
      "transactionHash": "0x926562541b2eeaf166fa7c92406108742e50dd731f50c9575b9215909f3cb055",
      "transactionIndex": "0xb9",
      "blockHash": "0xe70ef2d768b3a9c1b414f5567921a9a121ca11919b6292c136d3bf518e61609d",
      "blockNumber": "0x18ea75f",
      "gasUsed": "0xcfdc",
      "effectiveGasPrice": "0xbcab9ac",
      "from": "0x6698bf15be0abbdf4b0dcd60d97fce7461dd9c1b",
      "to": "0x2159692c92cd9358641d8eb9bed6d517544cb544",
      "contractAddress": null,
      "l1BaseFeeScalar": "0x44d",
      "l1BlobBaseFee": "0x1",
      "l1BlobBaseFeeScalar": "0xa118b",
      "l1Fee": "0xf22",
      "l1GasPrice": "0x872",
      "l1GasUsed": "0x640"
    },
    {
      "status": "0x1",
      "cumulativeGasUsed": "0x1b7b15",
      "logs": [
        {
          "address": "0x2159692c92cd9358641d8eb9bed6d517544cb544",
          "topics": [
            "0xddf252ad1be2c89b69c2b068fc378daa952ba7f163c4a11628f55a4df523b3ef",
            "0x0000000000000000000000000000000000000000000000000000000000000000",
            "0x000000000000000000000000ba5359fac9736e687c39d9613de3e8fa6c7af1ce"
          ],
          "data": "0x00000000000000000000000000000000000000000000152d02c7e14af6800000",
          "blockHash": "0xbbf923d3c473c04dd67634cdef24b7abf5cc1f01030844236560ecb5c09689a6",
          "blockNumber": "0x18ea761",
          "blockTimestamp": "0x6830ada2",
          "transactionHash": "0xd4191677ea19db47d34e438a6556f7f67436c8b8cfe9c6ed8d4a7b8c94c2d4db",
          "transactionIndex": "0x20",
          "logIndex": "0x12",
          "removed": false
        }
      ],
      "logsBloom": "0x00000000000000000000000000000000000000000000000000000000000000000000000000000000000000000000000000000000000000000400000000000000000000000000000000000008000000000000000000000000000000000000000000000000020000000000000000000800000000000000000000000010000000000000000000000000000000000000000000000000000000002000000001000000000000000000000000000000000000000000000000000000000000000000000000000002000000000000002000000000000010000000000040000000000020000000000000000000000000000000000000000000000000000000000000000000",
      "type": "0x2",
      "transactionHash": "0xd4191677ea19db47d34e438a6556f7f67436c8b8cfe9c6ed8d4a7b8c94c2d4db",
      "transactionIndex": "0x20",
      "blockHash": "0xbbf923d3c473c04dd67634cdef24b7abf5cc1f01030844236560ecb5c09689a6",
      "blockNumber": "0x18ea761",
      "gasUsed": "0xcfdc",
      "effectiveGasPrice": "0xe2dcf",
      "from": "0x6698bf15be0abbdf4b0dcd60d97fce7461dd9c1b",
      "to": "0x2159692c92cd9358641d8eb9bed6d517544cb544",
      "contractAddress": null,
      "l1BaseFeeScalar": "0x44d",
      "l1BlobBaseFee": "0x1",
      "l1BlobBaseFeeScalar": "0xa118b",
      "l1Fee": "0x102e",
      "l1GasPrice": "0x90a",
      "l1GasUsed": "0x640"
    },
    {
      "status": "0x1",
      "cumulativeGasUsed": "0x5d8354",
      "logs": [
        {
          "address": "0x5f83c882b6e5e6fb1d8445ac9346100f27b5bab9",
          "topics": [
            "0xc69c4b08ef3ac3499a548162bc0920f1f65d1559089f8c19d54ca0cb3b2651f6",
            "0x0000000000000000000000006e9972213bf459853fa33e28ab7219e9157c8d02"
          ],
          "data": "0x0000000000000000000000000000000000000000000000000000000000000040000000000000000000000000000000000000000000000000000000000000008000000000000000000000000000000000000000000000000000000000000000095a68617272696f72310000000000000000000000000000000000000000000000000000000000000000000000000000000000000000000000000000000000000c697066733a2f2f6d657461310000000000000000000000000000000000000000",
          "blockHash": "0xdf82e9acbbaa75e1d409c52463e88fce2e4b76b040f8f8c238d3551fd5935622",
          "blockNumber": "0x18ea761",
          "blockTimestamp": "0x6830ada2",
          "transactionHash": "0xc4e54281be1561814ded41c9816fc6d3f129525622ae028fb3299faececb5f1b",
          "transactionIndex": "0x6f",
          "logIndex": "0x23",
          "removed": false
        }
      ],
      "logsBloom": "0x00000000000000000000000000000080000000000000000000000000000000000000000000000000000000000000000000020000000000000000000000000000000000000000000000000001000000000000000000000000000000000800000000000000000000000000000000000000000000000000000000000000000000000000000000000000000000000000000000000000200000000000000000000000000000001000001000000000000000000000000000000000000000000000000000020000000000000000000040000000000000000000000000000000000000000000000000000000000000000000000000000000000000000000000000000000",
      "type": "0x2",
      "transactionHash": "0xc4e54281be1561814ded41c9816fc6d3f129525622ae028fb3299faececb5f1b",
      "transactionIndex": "0x6f",
      "blockHash": "0xdf82e9acbbaa75e1d409c52463e88fce2e4b76b040f8f8c238d3551fd5935622",
      "blockNumber": "0x18ea761",
      "gasUsed": "0x1c4c9",
      "effectiveGasPrice": "0xe2dcf",
      "from": "0x6e9972213bf459853fa33e28ab7219e9157c8d02",
      "to": "0x5f83c882b6e5e6fb1d8445ac9346100f27b5bab9",
      "contractAddress": null,
      "l1BaseFeeScalar": "0x44d",
      "l1BlobBaseFee": "0x1",
      "l1BlobBaseFeeScalar": "0xa118b",
      "l1Fee": "0x1086",
      "l1GasPrice": "0x90a",
      "l1GasUsed": "0x662"
    },
    {
      "status": "0x1",
      "cumulativeGasUsed": "0x84171c",
      "logs": [
        {
          "address": "0x5f83c882b6e5e6fb1d8445ac9346100f27b5bab9",
          "topics": [
            "0xdc8e5155c1f416e66c1e039bb31e38cad0242f7f56b75555f6596de893f83173",
            "0x0000000000000000000000000000000000000000000000000000000000000001",
            "0x000000000000000000000000ba5359fac9736e687c39d9613de3e8fa6c7af1ce",
            "0x0000000000000000000000006e9972213bf459853fa33e28ab7219e9157c8d02"
          ],
          "data": "0x0000000000000000000000000000000000000000000000000000000068335086000000000000000000000000000000000000000000000000000000000000000000000000000000000000000000000000000000000000000000000000000000800000000000000000000000000000000000000000000000000000000000001b580000000000000000000000000000000000000000000000000000000000000012446f20736f6d657468696e672065706963210000000000000000000000000000",
          "blockHash": "0x34c2143ee0e7c87bcd62a490641ea348721ba3171b2a55eca34a8cb16ba6a60a",
          "blockNumber": "0x18ea761",
          "blockTimestamp": "0x6830ada2",
          "transactionHash": "0x95bc20197da154ca8ce20a48b56145d3d4dc81cd3f3d0a271b4d3a532fef0c9f",
          "transactionIndex": "0x99",
          "logIndex": "0x30",
          "removed": false
        }
      ],
      "logsBloom": "0x00000000000000000000000000000000000000000000000000000000000000000000000000000000000000000000000000020000000000000400000000040000000000000000000000000000000000000000004000040000000000000000000000000000000000000000000000000000000000000000000000000000000000000000000000000000000000000000000000000000200000000000000001000000000000001000001000000000000000000000000000000010000000000000000000020000000000000000002040000000000000001000000000000000000040000000000000000000000000000000000000000000000000000000000000000000",
      "type": "0x2",
      "transactionHash": "0x95bc20197da154ca8ce20a48b56145d3d4dc81cd3f3d0a271b4d3a532fef0c9f",
      "transactionIndex": "0x99",
      "blockHash": "0x34c2143ee0e7c87bcd62a490641ea348721ba3171b2a55eca34a8cb16ba6a60a",
      "blockNumber": "0x18ea761",
      "gasUsed": "0x49e91",
      "effectiveGasPrice": "0xe2dcf",
      "from": "0xba5359fac9736e687c39d9613de3e8fa6c7af1ce",
      "to": "0x5f83c882b6e5e6fb1d8445ac9346100f27b5bab9",
      "contractAddress": null,
      "l1BaseFeeScalar": "0x44d",
      "l1BlobBaseFee": "0x1",
      "l1BlobBaseFeeScalar": "0xa118b",
      "l1Fee": "0x1496",
      "l1GasPrice": "0x90a",
      "l1GasUsed": "0x7f3"
    },
    {
      "status": "0x1",
      "cumulativeGasUsed": "0x544a55",
      "logs": [
        {
          "address": "0x2159692c92cd9358641d8eb9bed6d517544cb544",
          "topics": [
            "0x8c5be1e5ebec7d5bd14f71427d1e84f3dd0314c0f7b2291e5b200ac8c7c3b925",
            "0x000000000000000000000000ba5359fac9736e687c39d9613de3e8fa6c7af1ce",
            "0x0000000000000000000000005f83c882b6e5e6fb1d8445ac9346100f27b5bab9"
          ],
          "data": "0x00000000000000000000000000000000000000000000021e19e0c9bab2400000",
          "blockHash": "0xd4594a542fd277ed36be057ab8fa38eab4964760cbae6d0062a93e3305a55685",
          "blockNumber": "0x18ea762",
          "blockTimestamp": "0x6830ada4",
          "transactionHash": "0x75584d2892ac2e2e4125e9cff0cd112b8f3a470b62b31d7fdfab2925338ee5e5",
          "transactionIndex": "0x62",
          "logIndex": "0xf",
          "removed": false
        }
      ],
      "logsBloom": "0x00040000000000000000000000000000000000000000000000000000000000000000000000000000000000000000000000008000000000000400000000200000000000000000000000000000000000000000000000000000000000000000000000000000000000000000000000000000000000000000000000000000000000000000000000000000000000000000000000000000000000002000000001000000020000000000000000000000000000000000000000002000000000000000000000000000000000000000002000000000000010000000000040000000000000000010000000000000000000000000000000000000000000000000000000000000",
      "type": "0x2",
      "transactionHash": "0x75584d2892ac2e2e4125e9cff0cd112b8f3a470b62b31d7fdfab2925338ee5e5",
      "transactionIndex": "0x62",
      "blockHash": "0xd4594a542fd277ed36be057ab8fa38eab4964760cbae6d0062a93e3305a55685",
      "blockNumber": "0x18ea762",
      "gasUsed": "0xb3cc",
      "effectiveGasPrice": "0xe2dcf",
      "from": "0xba5359fac9736e687c39d9613de3e8fa6c7af1ce",
      "to": "0x2159692c92cd9358641d8eb9bed6d517544cb544",
      "contractAddress": null,
      "l1BaseFeeScalar": "0x44d",
      "l1BlobBaseFee": "0x1",
      "l1BlobBaseFeeScalar": "0xa118b",
      "l1Fee": "0x102e",
      "l1GasPrice": "0x90a",
      "l1GasUsed": "0x640"
    },
    {
      "status": "0x1",
      "cumulativeGasUsed": "0xb2a87a",
      "logs": [
        {
          "address": "0x2159692c92cd9358641d8eb9bed6d517544cb544",
          "topics": [
            "0xddf252ad1be2c89b69c2b068fc378daa952ba7f163c4a11628f55a4df523b3ef",
            "0x000000000000000000000000ba5359fac9736e687c39d9613de3e8fa6c7af1ce",
            "0x0000000000000000000000005f83c882b6e5e6fb1d8445ac9346100f27b5bab9"
          ],
          "data": "0x00000000000000000000000000000000000000000000021e19e0c9bab2400000",
          "blockHash": "0x681bdb1b05a100f17e1ab34c091b89ba047941c290957db18211a1df443812fe",
          "blockNumber": "0x18ea763",
          "blockTimestamp": "0x6830ada6",
          "transactionHash": "0x5a0b8f4a6b9af01fcbfcdd2bf63a2c3a2cb2cb17b73cc9886fba52d7911f4f07",
          "transactionIndex": "0xbe",
          "logIndex": "0x24",
          "removed": false
        },
        {
          "address": "0x5f83c882b6e5e6fb1d8445ac9346100f27b5bab9",
          "topics": [
            "0x0468b320dc5e60234d21d68dd98b49440a4de3e02571182f7ce9dd8bf80e4baf",
            "0x0000000000000000000000000000000000000000000000000000000000000001",
            "0x000000000000000000000000ba5359fac9736e687c39d9613de3e8fa6c7af1ce"
          ],
          "data": "0x00000000000000000000000000000000000000000000021e19e0c9bab2400000",
          "blockHash": "0x681bdb1b05a100f17e1ab34c091b89ba047941c290957db18211a1df443812fe",
          "blockNumber": "0x18ea763",
          "blockTimestamp": "0x6830ada6",
          "transactionHash": "0x5a0b8f4a6b9af01fcbfcdd2bf63a2c3a2cb2cb17b73cc9886fba52d7911f4f07",
          "transactionIndex": "0xbe",
          "logIndex": "0x25",
          "removed": false
        }
      ],
      "logsBloom": "0x00040000000000000000000000000000000000000000000000000000000000000000000000000000000000000000000004028000000000000400000000040000000000000000000000000008000000000000000000040000000000000000000000000000000000000000000000000000000000000000000000000010000000000000000000000000000000000000000000000000000000002000000001000000000000000000000000000000000000000000000000002000000000000000000000020002000000000000002040000000000010000000000040000100010040000000000000000000000000000000000000000000000000000000000000000000",
      "type": "0x2",
      "transactionHash": "0x5a0b8f4a6b9af01fcbfcdd2bf63a2c3a2cb2cb17b73cc9886fba52d7911f4f07",
      "transactionIndex": "0xbe",
      "blockHash": "0x681bdb1b05a100f17e1ab34c091b89ba047941c290957db18211a1df443812fe",
      "blockNumber": "0x18ea763",
      "gasUsed": "0x25e61",
      "effectiveGasPrice": "0xe2dcf",
      "from": "0xba5359fac9736e687c39d9613de3e8fa6c7af1ce",
      "to": "0x5f83c882b6e5e6fb1d8445ac9346100f27b5bab9",
      "contractAddress": null,
      "l1BaseFeeScalar": "0x44d",
      "l1BlobBaseFee": "0x1",
      "l1BlobBaseFeeScalar": "0xa118b",
      "l1Fee": "0x102e",
      "l1GasPrice": "0x90a",
      "l1GasUsed": "0x640"
    },
    {
      "status": "0x1",
      "cumulativeGasUsed": "0x3a75f8",
      "logs": [
        {
          "address": "0x2159692c92cd9358641d8eb9bed6d517544cb544",
          "topics": [
            "0x8c5be1e5ebec7d5bd14f71427d1e84f3dd0314c0f7b2291e5b200ac8c7c3b925",
            "0x0000000000000000000000006e9972213bf459853fa33e28ab7219e9157c8d02",
            "0x0000000000000000000000005f83c882b6e5e6fb1d8445ac9346100f27b5bab9"
          ],
          "data": "0x00000000000000000000000000000000000000000000021e19e0c9bab2400000",
          "blockHash": "0x5a3b89403a962c69c17d53c4e298dd331d65057045e5fc6a835bd777074237e3",
          "blockNumber": "0x18ea764",
          "transactionHash": "0x320e659fb1a01327d2794fb2e92613b77f31528b32cf7602207a111578b9d289",
          "transactionIndex": "0x46",
          "logIndex": "0x5",
          "removed": false
        }
      ],
      "logsBloom": "0x00040000000000000000000000000000000000000000000000000000000000000000000000000000000000000000000000008000000000000000000000200000000000000000000000000000000000000000000000000000000000000000000000000000000000000000000000000000000000000000000000000000000000000000000000000000000000000000000000000000200000002000000000000000020000001000001000000000000000000000000000002000000000000000000000000000000000000000000000000000000010000000000040000000000000000010000000000000000000000000000000000000000000000000000000000000",
      "type": "0x2",
      "transactionHash": "0x320e659fb1a01327d2794fb2e92613b77f31528b32cf7602207a111578b9d289",
      "transactionIndex": "0x46",
      "blockHash": "0x5a3b89403a962c69c17d53c4e298dd331d65057045e5fc6a835bd777074237e3",
      "blockNumber": "0x18ea764",
      "gasUsed": "0xb3cc",
      "effectiveGasPrice": "0xbc48df0",
      "from": "0x6e9972213bf459853fa33e28ab7219e9157c8d02",
      "to": "0x2159692c92cd9358641d8eb9bed6d517544cb544",
      "contractAddress": null,
      "l1BaseFeeScalar": "0x44d",
      "l1BlobBaseFee": "0x1",
      "l1BlobBaseFeeScalar": "0xa118b",
      "l1Fee": "0x102e",
      "l1GasPrice": "0x90a",
      "l1GasUsed": "0x640"
    },
    {
      "status": "0x1",
      "cumulativeGasUsed": "0x540544",
      "logs": [
        {
          "address": "0x2159692c92cd9358641d8eb9bed6d517544cb544",
          "topics": [
            "0x8c5be1e5ebec7d5bd14f71427d1e84f3dd0314c0f7b2291e5b200ac8c7c3b925",
            "0x0000000000000000000000006e9972213bf459853fa33e28ab7219e9157c8d02",
            "0x0000000000000000000000005f83c882b6e5e6fb1d8445ac9346100f27b5bab9"
          ],
          "data": "0x00000000000000000000000000000000000000000000021e19e0c9bab2400000",
          "blockHash": "0x3581b2173b75539eda3afbfa37b320f6b9e5ca5ed653216d26bf5a552f73bd52",
          "blockNumber": "0x18ea766",
          "transactionHash": "0x769b11bb1610126f31bf3442a95009246a81e11ef98b97805e7258d7cc624db4",
          "transactionIndex": "0x5f",
          "logIndex": "0x22",
          "removed": false
        }
      ],
      "logsBloom": "0x00040000000000000000000000000000000000000000000000000000000000000000000000000000000000000000000000008000000000000000000000200000000000000000000000000000000000000000000000000000000000000000000000000000000000000000000000000000000000000000000000000000000000000000000000000000000000000000000000000000200000002000000000000000020000001000001000000000000000000000000000002000000000000000000000000000000000000000000000000000000010000000000040000000000000000010000000000000000000000000000000000000000000000000000000000000",
      "type": "0x2",
      "transactionHash": "0x769b11bb1610126f31bf3442a95009246a81e11ef98b97805e7258d7cc624db4",
      "transactionIndex": "0x5f",
      "blockHash": "0x3581b2173b75539eda3afbfa37b320f6b9e5ca5ed653216d26bf5a552f73bd52",
      "blockNumber": "0x18ea766",
      "gasUsed": "0x6610",
      "effectiveGasPrice": "0xbc4044f",
      "from": "0x6e9972213bf459853fa33e28ab7219e9157c8d02",
      "to": "0x2159692c92cd9358641d8eb9bed6d517544cb544",
      "contractAddress": null,
      "l1BaseFeeScalar": "0x44d",
      "l1BlobBaseFee": "0x1",
      "l1BlobBaseFeeScalar": "0xa118b",
      "l1Fee": "0x102e",
      "l1GasPrice": "0x90a",
      "l1GasUsed": "0x640"
    },
    {
      "status": "0x1",
      "cumulativeGasUsed": "0x53d7e3",
      "logs": [
        {
          "address": "0x5f83c882b6e5e6fb1d8445ac9346100f27b5bab9",
          "topics": [
            "0xc577bdeb8da1059fec56a8d1554e25846f18ebf046c214b145cac25f76bda350",
            "0x0000000000000000000000000000000000000000000000000000000000000001"
          ],
          "data": "0x0000000000000000000000000000000000000000000000000000000000000020000000000000000000000000000000000000000000000000000000000000000d697066733a2f2f70726f6f663100000000000000000000000000000000000000",
          "blockHash": "0xb3fa1a176d466ae92576817f8bbf5e8570563e57924a9e81910d7a8c00ed2fcb",
          "blockNumber": "0x18ea768",
          "blockTimestamp": "0x6830adb0",
          "transactionHash": "0x625bf2e331811c69e73bf49ce8d2aaff91463d81d75940be6eeed40bf846096d",
          "transactionIndex": "0x67",
          "logIndex": "0x2d",
          "removed": false
        }
      ],
      "logsBloom": "0x00000000000000000000000001000000000000000000000000000000000000000000000000000000000000000000000000020000000000000000000000040000000000000000000000000000000000000000000000040000000000000000000000000000000000000000000000000000000000000000000000000000000000000000000000000000000000000000000000000000000000000000000000010000000000000000000000000000000000000000000000000000000000000000000000020000000000000000000040000000000000000000000000000000000040000000000000000000000008000000000000000000000000000000000000000000",
      "type": "0x2",
      "transactionHash": "0x625bf2e331811c69e73bf49ce8d2aaff91463d81d75940be6eeed40bf846096d",
      "transactionIndex": "0x67",
      "blockHash": "0xb3fa1a176d466ae92576817f8bbf5e8570563e57924a9e81910d7a8c00ed2fcb",
      "blockNumber": "0x18ea768",
      "gasUsed": "0x1869f",
      "effectiveGasPrice": "0xe2dcf",
      "from": "0x6e9972213bf459853fa33e28ab7219e9157c8d02",
      "to": "0x5f83c882b6e5e6fb1d8445ac9346100f27b5bab9",
      "contractAddress": null,
      "l1BaseFeeScalar": "0x44d",
      "l1BlobBaseFee": "0x1",
      "l1BlobBaseFeeScalar": "0xa118b",
      "l1Fee": "0xf61",
      "l1GasPrice": "0x896",
      "l1GasUsed": "0x640"
    },
    {
      "status": "0x1",
      "cumulativeGasUsed": "0xd926c8",
      "logs": [
        {
          "address": "0x2159692c92cd9358641d8eb9bed6d517544cb544",
          "topics": [
            "0xddf252ad1be2c89b69c2b068fc378daa952ba7f163c4a11628f55a4df523b3ef",
            "0x0000000000000000000000005f83c882b6e5e6fb1d8445ac9346100f27b5bab9",
            "0x0000000000000000000000006e9972213bf459853fa33e28ab7219e9157c8d02"
          ],
          "data": "0x0000000000000000000000000000000000000000000001969368974c05b00000",
          "blockHash": "0xb8e582df68c292b5d62960d55faf49e0cdaee8c508b7900b45d2d4fc2c4fe05d",
          "blockNumber": "0x18ea769",
          "transactionHash": "0x501bc20d7b59e8b037a2961dfca566367ea8dc0916afe8d45d4a712a2a9f1d66",
          "transactionIndex": "0xd1",
          "logIndex": "0x87",
          "removed": false
        },
        {
          "address": "0x2159692c92cd9358641d8eb9bed6d517544cb544",
          "topics": [
            "0xddf252ad1be2c89b69c2b068fc378daa952ba7f163c4a11628f55a4df523b3ef",
            "0x0000000000000000000000005f83c882b6e5e6fb1d8445ac9346100f27b5bab9",
            "0x000000000000000000000000ba5359fac9736e687c39d9613de3e8fa6c7af1ce"
          ],
          "data": "0x00000000000000000000000000000000000000000000006c6b935b8bbd400000",
          "blockHash": "0xb8e582df68c292b5d62960d55faf49e0cdaee8c508b7900b45d2d4fc2c4fe05d",
          "blockNumber": "0x18ea769",
          "transactionHash": "0x501bc20d7b59e8b037a2961dfca566367ea8dc0916afe8d45d4a712a2a9f1d66",
          "transactionIndex": "0xd1",
          "logIndex": "0x88",
          "removed": false
        },
        {
          "address": "0x2159692c92cd9358641d8eb9bed6d517544cb544",
          "topics": [
            "0xddf252ad1be2c89b69c2b068fc378daa952ba7f163c4a11628f55a4df523b3ef",
            "0x0000000000000000000000005f83c882b6e5e6fb1d8445ac9346100f27b5bab9",
            "0x0000000000000000000000002159692c92cd9358641d8eb9bed6d517544cb544"
          ],
          "data": "0x00000000000000000000000000000000000000000000001b1ae4d6e2ef500000",
          "blockHash": "0xb8e582df68c292b5d62960d55faf49e0cdaee8c508b7900b45d2d4fc2c4fe05d",
          "blockNumber": "0x18ea769",
          "transactionHash": "0x501bc20d7b59e8b037a2961dfca566367ea8dc0916afe8d45d4a712a2a9f1d66",
          "transactionIndex": "0xd1",
          "logIndex": "0x89",
          "removed": false
        },
        {
          "address": "0xc9f8f74346bad84f10ee0648d8dedc7b900ec9e8",
          "topics": [
            "0xddf252ad1be2c89b69c2b068fc378daa952ba7f163c4a11628f55a4df523b3ef",
            "0x0000000000000000000000000000000000000000000000000000000000000000",
            "0x0000000000000000000000006e9972213bf459853fa33e28ab7219e9157c8d02"
          ],
          "data": "0x0000000000000000000000000000000000000000000001969368974c05b00000",
          "blockHash": "0xb8e582df68c292b5d62960d55faf49e0cdaee8c508b7900b45d2d4fc2c4fe05d",
          "blockNumber": "0x18ea769",
          "transactionHash": "0x501bc20d7b59e8b037a2961dfca566367ea8dc0916afe8d45d4a712a2a9f1d66",
          "transactionIndex": "0xd1",
          "logIndex": "0x8a",
          "removed": false
        },
        {
          "address": "0xc9f8f74346bad84f10ee0648d8dedc7b900ec9e8",
          "topics": [
            "0xddf252ad1be2c89b69c2b068fc378daa952ba7f163c4a11628f55a4df523b3ef",
            "0x0000000000000000000000000000000000000000000000000000000000000000",
            "0x0000000000000000000000002159692c92cd9358641d8eb9bed6d517544cb544"
          ],
          "data": "0x00000000000000000000000000000000000000000000001b1ae4d6e2ef500000",
          "blockHash": "0xb8e582df68c292b5d62960d55faf49e0cdaee8c508b7900b45d2d4fc2c4fe05d",
          "blockNumber": "0x18ea769",
          "transactionHash": "0x501bc20d7b59e8b037a2961dfca566367ea8dc0916afe8d45d4a712a2a9f1d66",
          "transactionIndex": "0xd1",
          "logIndex": "0x8b",
          "removed": false
        },
        {
          "address": "0xc9f8f74346bad84f10ee0648d8dedc7b900ec9e8",
          "topics": [
            "0xddf252ad1be2c89b69c2b068fc378daa952ba7f163c4a11628f55a4df523b3ef",
            "0x0000000000000000000000000000000000000000000000000000000000000000",
            "0x000000000000000000000000ba5359fac9736e687c39d9613de3e8fa6c7af1ce"
          ],
          "data": "0x00000000000000000000000000000000000000000000021e19e0c9bab2400000",
          "blockHash": "0xb8e582df68c292b5d62960d55faf49e0cdaee8c508b7900b45d2d4fc2c4fe05d",
          "blockNumber": "0x18ea769",
          "transactionHash": "0x501bc20d7b59e8b037a2961dfca566367ea8dc0916afe8d45d4a712a2a9f1d66",
          "transactionIndex": "0xd1",
          "logIndex": "0x8c",
          "removed": false
        },
        {
          "address": "0x5f83c882b6e5e6fb1d8445ac9346100f27b5bab9",
          "topics": [
            "0x3ecc666ff01338b0f16250426d0970be81cd025aae938564094a6e1e96786d30",
            "0x0000000000000000000000000000000000000000000000000000000000000001"
          ],
          "data": "0x0000000000000000000000000000000000000000000001969368974c05b0000000000000000000000000000000000000000000000000006c6b935b8bbd40000000000000000000000000000000000000000000000000001b1ae4d6e2ef500000",
          "blockHash": "0xb8e582df68c292b5d62960d55faf49e0cdaee8c508b7900b45d2d4fc2c4fe05d",
          "blockNumber": "0x18ea769",
          "transactionHash": "0x501bc20d7b59e8b037a2961dfca566367ea8dc0916afe8d45d4a712a2a9f1d66",
          "transactionIndex": "0xd1",
          "logIndex": "0x8d",
          "removed": false
        }
      ],
      "logsBloom": "0x00040000000000000000000000000000000000000000000000000000000000000000000000000000200000000000000000028000000400000400000000040000000000000000000000000008000000000000000000040000000000200000000000000000020000200000000000000800000000000000000000000010000000000000000000000040000000000000000000000000200000002000000001000000000000001000001000200000000000000000000000002000000000000000000000020002000000000000002040001000000010000000800040000000000060000000000000000000000000000000000000000000000010000000000000000000",
      "type": "0x2",
      "transactionHash": "0x501bc20d7b59e8b037a2961dfca566367ea8dc0916afe8d45d4a712a2a9f1d66",
      "transactionIndex": "0xd1",
      "blockHash": "0xb8e582df68c292b5d62960d55faf49e0cdaee8c508b7900b45d2d4fc2c4fe05d",
      "blockNumber": "0x18ea769",
      "gasUsed": "0x3d068",
      "effectiveGasPrice": "0xbbf4c73",
      "from": "0x6e9972213bf459853fa33e28ab7219e9157c8d02",
      "to": "0x5f83c882b6e5e6fb1d8445ac9346100f27b5bab9",
      "contractAddress": null,
      "l1BaseFeeScalar": "0x44d",
      "l1BlobBaseFee": "0x1",
      "l1BlobBaseFeeScalar": "0xa118b",
      "l1Fee": "0xf61",
      "l1GasPrice": "0x896",
      "l1GasUsed": "0x640"
    },
    {
      "status": "0x1",
      "cumulativeGasUsed": "0xd1a4d5",
      "logs": [
        {
          "address": "0x5f83c882b6e5e6fb1d8445ac9346100f27b5bab9",
          "topics": [
            "0xdc8e5155c1f416e66c1e039bb31e38cad0242f7f56b75555f6596de893f83173",
            "0x0000000000000000000000000000000000000000000000000000000000000002",
            "0x000000000000000000000000ba5359fac9736e687c39d9613de3e8fa6c7af1ce",
            "0x0000000000000000000000006e9972213bf459853fa33e28ab7219e9157c8d02"
          ],
          "data": "0x000000000000000000000000000000000000000000000000000000006833508600000000000000000000000000000000000000000000000000000000000003e800000000000000000000000000000000000000000000000000000000000000800000000000000000000000000000000000000000000000000000000000001b580000000000000000000000000000000000000000000000000000000000000012446f20736f6d657468696e6720656c7365210000000000000000000000000000",
          "blockHash": "0x6436ab874ff0cc956992803924644f53e4ad461702745dddd1c076c0d4e8a1ca",
          "blockNumber": "0x18ea76a",
          "transactionHash": "0x17624ac1252f54e246ddab694de2315c6748af9e78678fff03d58455583a5849",
          "transactionIndex": "0xd3",
          "logIndex": "0x87",
          "removed": false
        }
      ],
      "logsBloom": "0x04000000000000000000000000000000000000000000000000000000000000000000000000000000000000000000000000020000000000000400000000000000000000000000000000000000000000000000004000000000000000000000000000000000000000000000000000000000000000000000000000000000000000000000000000000000000000000000000000000000200000000000000001000000000000001000001000000100000000000000000000000010000000000000000000020000000000000000002040000000000000001000000000000000000000000000000000000000000000000000000000000000008000000000000000000000",
      "type": "0x2",
      "transactionHash": "0x17624ac1252f54e246ddab694de2315c6748af9e78678fff03d58455583a5849",
      "transactionIndex": "0xd3",
      "blockHash": "0x6436ab874ff0cc956992803924644f53e4ad461702745dddd1c076c0d4e8a1ca",
      "blockNumber": "0x18ea76a",
      "gasUsed": "0x42401",
      "effectiveGasPrice": "0xbc0802f",
      "from": "0xba5359fac9736e687c39d9613de3e8fa6c7af1ce",
      "to": "0x5f83c882b6e5e6fb1d8445ac9346100f27b5bab9",
      "contractAddress": null,
      "l1BaseFeeScalar": "0x44d",
      "l1BlobBaseFee": "0x1",
      "l1BlobBaseFeeScalar": "0xa118b",
      "l1Fee": "0x1478",
      "l1GasPrice": "0x896",
      "l1GasUsed": "0x851"
    },
    {
      "status": "0x1",
      "cumulativeGasUsed": "0x1818d6",
      "logs": [
        {
          "address": "0x2159692c92cd9358641d8eb9bed6d517544cb544",
          "topics": [
            "0x8c5be1e5ebec7d5bd14f71427d1e84f3dd0314c0f7b2291e5b200ac8c7c3b925",
            "0x000000000000000000000000ba5359fac9736e687c39d9613de3e8fa6c7af1ce",
            "0x0000000000000000000000005f83c882b6e5e6fb1d8445ac9346100f27b5bab9"
          ],
          "data": "0x00000000000000000000000000000000000000000000021e19e0c9bab2400000",
          "blockHash": "0xaaaaa649e199c090d18b227546aacdc07dcf9af215cde266f09aee1dac666ad9",
          "blockNumber": "0x18ea76c",
          "transactionHash": "0xafb69b31bdde29590ed6f966df07e184cd5dd6503e4faa9c718ffc9d6112518b",
          "transactionIndex": "0x17",
          "logIndex": "0x1",
          "removed": false
        }
      ],
      "logsBloom": "0x00040000000000000000000000000000000000000000000000000000000000000000000000000000000000000000000000008000000000000400000000200000000000000000000000000000000000000000000000000000000000000000000000000000000000000000000000000000000000000000000000000000000000000000000000000000000000000000000000000000000000002000000001000000020000000000000000000000000000000000000000002000000000000000000000000000000000000000002000000000000010000000000040000000000000000010000000000000000000000000000000000000000000000000000000000000",
      "type": "0x2",
      "transactionHash": "0xafb69b31bdde29590ed6f966df07e184cd5dd6503e4faa9c718ffc9d6112518b",
      "transactionIndex": "0x17",
      "blockHash": "0xaaaaa649e199c090d18b227546aacdc07dcf9af215cde266f09aee1dac666ad9",
      "blockNumber": "0x18ea76c",
      "gasUsed": "0xb3cc",
      "effectiveGasPrice": "0xbbfb719",
      "from": "0xba5359fac9736e687c39d9613de3e8fa6c7af1ce",
      "to": "0x2159692c92cd9358641d8eb9bed6d517544cb544",
      "contractAddress": null,
      "l1BaseFeeScalar": "0x44d",
      "l1BlobBaseFee": "0x1",
      "l1BlobBaseFeeScalar": "0xa118b",
      "l1Fee": "0xf61",
      "l1GasPrice": "0x896",
      "l1GasUsed": "0x640"
    },
    {
      "status": "0x1",
      "cumulativeGasUsed": "0x22fe9b",
      "logs": [
        {
          "address": "0x2159692c92cd9358641d8eb9bed6d517544cb544",
          "topics": [
            "0xddf252ad1be2c89b69c2b068fc378daa952ba7f163c4a11628f55a4df523b3ef",
            "0x000000000000000000000000ba5359fac9736e687c39d9613de3e8fa6c7af1ce",
            "0x0000000000000000000000005f83c882b6e5e6fb1d8445ac9346100f27b5bab9"
          ],
          "data": "0x00000000000000000000000000000000000000000000021e19e0c9bab2400000",
          "blockHash": "0xfe23145eeaedb3705d5593e36110ca5c40a6de61c61f44496b0ea95db92fbd95",
          "blockNumber": "0x18ea76e",
          "blockTimestamp": "0x6830adbc",
          "transactionHash": "0x847ae2458cd7ae6815dfe5cf3818e26bbc07f9e9ffffb9b736e78490409706e4",
          "transactionIndex": "0x2f",
          "logIndex": "0x1",
          "removed": false
        },
        {
          "address": "0x5f83c882b6e5e6fb1d8445ac9346100f27b5bab9",
          "topics": [
            "0x0468b320dc5e60234d21d68dd98b49440a4de3e02571182f7ce9dd8bf80e4baf",
            "0x0000000000000000000000000000000000000000000000000000000000000002",
            "0x000000000000000000000000ba5359fac9736e687c39d9613de3e8fa6c7af1ce"
          ],
          "data": "0x00000000000000000000000000000000000000000000021e19e0c9bab2400000",
          "blockHash": "0xfe23145eeaedb3705d5593e36110ca5c40a6de61c61f44496b0ea95db92fbd95",
          "blockNumber": "0x18ea76e",
          "blockTimestamp": "0x6830adbc",
          "transactionHash": "0x847ae2458cd7ae6815dfe5cf3818e26bbc07f9e9ffffb9b736e78490409706e4",
          "transactionIndex": "0x2f",
          "logIndex": "0x2",
          "removed": false
        }
      ],
      "logsBloom": "0x04040000000000000000000000000000000000000000000000000000000000000000000000000000000000000000000004028000000000000400000000000000000000000000000000000008000000000000000000000000000000000000000000000000000000000000000000000000000000000000000000000010000000000000000000000000000000000000000000000000000000002000000001000000000000000000000000000100000000000000000000002000000000000000000000020002000000000000002040000000000010000000000040000100010000000000000000000000000000000000000000000000008000000000000000000000",
      "type": "0x2",
      "transactionHash": "0x847ae2458cd7ae6815dfe5cf3818e26bbc07f9e9ffffb9b736e78490409706e4",
      "transactionIndex": "0x2f",
      "blockHash": "0xfe23145eeaedb3705d5593e36110ca5c40a6de61c61f44496b0ea95db92fbd95",
      "blockNumber": "0x18ea76e",
      "gasUsed": "0x25e61",
      "effectiveGasPrice": "0xe2dcf",
      "from": "0xba5359fac9736e687c39d9613de3e8fa6c7af1ce",
      "to": "0x5f83c882b6e5e6fb1d8445ac9346100f27b5bab9",
      "contractAddress": null,
      "l1BaseFeeScalar": "0x44d",
      "l1BlobBaseFee": "0x1",
      "l1BlobBaseFeeScalar": "0xa118b",
      "l1Fee": "0xf27",
      "l1GasPrice": "0x875",
      "l1GasUsed": "0x640"
    },
    {
      "status": "0x1",
      "cumulativeGasUsed": "0x6c0050",
      "logs": [
        {
          "address": "0x2159692c92cd9358641d8eb9bed6d517544cb544",
          "topics": [
            "0x8c5be1e5ebec7d5bd14f71427d1e84f3dd0314c0f7b2291e5b200ac8c7c3b925",
            "0x0000000000000000000000006e9972213bf459853fa33e28ab7219e9157c8d02",
            "0x0000000000000000000000005f83c882b6e5e6fb1d8445ac9346100f27b5bab9"
          ],
          "data": "0x00000000000000000000000000000000000000000000021e19e0c9bab2400000",
          "blockHash": "0xb0e81a286019c4b67ccc6114c207edffcbe3aca06dba9e2f8a06843fa936730a",
          "blockNumber": "0x18ea76e",
          "blockTimestamp": "0x6830adbc",
          "transactionHash": "0xd3a4869e7e313c33342d2ad0e58cf2e923af59d474890228e3c38093989e0981",
          "transactionIndex": "0x73",
          "logIndex": "0x43",
          "removed": false
        }
      ],
      "logsBloom": "0x00040000000000000000000000000000000000000000000000000000000000000000000000000000000000000000000000008000000000000000000000200000000000000000000000000000000000000000000000000000000000000000000000000000000000000000000000000000000000000000000000000000000000000000000000000000000000000000000000000000200000002000000000000000020000001000001000000000000000000000000000002000000000000000000000000000000000000000000000000000000010000000000040000000000000000010000000000000000000000000000000000000000000000000000000000000",
      "type": "0x2",
      "transactionHash": "0xd3a4869e7e313c33342d2ad0e58cf2e923af59d474890228e3c38093989e0981",
      "transactionIndex": "0x73",
      "blockHash": "0xb0e81a286019c4b67ccc6114c207edffcbe3aca06dba9e2f8a06843fa936730a",
      "blockNumber": "0x18ea76e",
      "gasUsed": "0x6610",
      "effectiveGasPrice": "0xe2dcf",
      "from": "0x6e9972213bf459853fa33e28ab7219e9157c8d02",
      "to": "0x2159692c92cd9358641d8eb9bed6d517544cb544",
      "contractAddress": null,
      "l1BaseFeeScalar": "0x44d",
      "l1BlobBaseFee": "0x1",
      "l1BlobBaseFeeScalar": "0xa118b",
      "l1Fee": "0xf27",
      "l1GasPrice": "0x875",
      "l1GasUsed": "0x640"
    },
    {
      "status": "0x1",
      "cumulativeGasUsed": "0xbfe231",
      "logs": [
        {
          "address": "0x2159692c92cd9358641d8eb9bed6d517544cb544",
          "topics": [
            "0x8c5be1e5ebec7d5bd14f71427d1e84f3dd0314c0f7b2291e5b200ac8c7c3b925",
            "0x0000000000000000000000006e9972213bf459853fa33e28ab7219e9157c8d02",
            "0x0000000000000000000000005f83c882b6e5e6fb1d8445ac9346100f27b5bab9"
          ],
          "data": "0x00000000000000000000000000000000000000000000021e19e0c9bab2400000",
          "blockHash": "0xfb488f3e28d708c990a39bc6747e1b993bc96e3a4ec6bcabb33e4d972a5368ce",
          "blockNumber": "0x18ea76f",
          "blockTimestamp": "0x6830adbe",
          "transactionHash": "0x4b08ea815e1cc1d98f6aed19fcc5f0da2d424ad3f2f8626d34826084fc153f30",
          "transactionIndex": "0xd6",
          "logIndex": "0x34",
          "removed": false
        }
      ],
      "logsBloom": "0x00040000000000000000000000000000000000000000000000000000000000000000000000000000000000000000000000008000000000000000000000200000000000000000000000000000000000000000000000000000000000000000000000000000000000000000000000000000000000000000000000000000000000000000000000000000000000000000000000000000200000002000000000000000020000001000001000000000000000000000000000002000000000000000000000000000000000000000000000000000000010000000000040000000000000000010000000000000000000000000000000000000000000000000000000000000",
      "type": "0x2",
      "transactionHash": "0x4b08ea815e1cc1d98f6aed19fcc5f0da2d424ad3f2f8626d34826084fc153f30",
      "transactionIndex": "0xd6",
      "blockHash": "0xfb488f3e28d708c990a39bc6747e1b993bc96e3a4ec6bcabb33e4d972a5368ce",
      "blockNumber": "0x18ea76f",
      "gasUsed": "0x6610",
      "effectiveGasPrice": "0xe2dcf",
      "from": "0x6e9972213bf459853fa33e28ab7219e9157c8d02",
      "to": "0x2159692c92cd9358641d8eb9bed6d517544cb544",
      "contractAddress": null,
      "l1BaseFeeScalar": "0x44d",
      "l1BlobBaseFee": "0x1",
      "l1BlobBaseFeeScalar": "0xa118b",
      "l1Fee": "0xf27",
      "l1GasPrice": "0x875",
      "l1GasUsed": "0x640"
    },
    {
      "status": "0x1",
      "cumulativeGasUsed": "0xd65c9c",
      "logs": [
        {
          "address": "0x5f83c882b6e5e6fb1d8445ac9346100f27b5bab9",
          "topics": [
            "0xc577bdeb8da1059fec56a8d1554e25846f18ebf046c214b145cac25f76bda350",
            "0x0000000000000000000000000000000000000000000000000000000000000002"
          ],
          "data": "0x0000000000000000000000000000000000000000000000000000000000000020000000000000000000000000000000000000000000000000000000000000000d697066733a2f2f70726f6f663200000000000000000000000000000000000000",
          "blockHash": "0x1d13da2e2f0c9eb5897b88f801a221192deb3ee1a9a782bfb77783345723e59f",
          "blockNumber": "0x18ea770",
          "transactionHash": "0x464cfe23e9e2a0dcaf83d5643e4834b4b7bd3d6d7992afbf85dee0b40f752a05",
          "transactionIndex": "0xbc",
          "logIndex": "0xdf",
          "removed": false
        }
      ],
      "logsBloom": "0x04000000000000000000000001000000000000000000000000000000000000000000000000000000000000000000000000020000000000000000000000000000000000000000000000000000000000000000000000000000000000000000000000000000000000000000000000000000000000000000000000000000000000000000000000000000000000000000000000000000000000000000000000010000000000000000000000000100000000000000000000000000000000000000000000020000000000000000000040000000000000000000000000000000000000000000000000000000000008000000000000000000008000000000000000000000",
      "type": "0x2",
      "transactionHash": "0x464cfe23e9e2a0dcaf83d5643e4834b4b7bd3d6d7992afbf85dee0b40f752a05",
      "transactionIndex": "0xbc",
      "blockHash": "0x1d13da2e2f0c9eb5897b88f801a221192deb3ee1a9a782bfb77783345723e59f",
      "blockNumber": "0x18ea770",
      "gasUsed": "0x1869f",
      "effectiveGasPrice": "0xbbcac5b",
      "from": "0x6e9972213bf459853fa33e28ab7219e9157c8d02",
      "to": "0x5f83c882b6e5e6fb1d8445ac9346100f27b5bab9",
      "contractAddress": null,
      "l1BaseFeeScalar": "0x44d",
      "l1BlobBaseFee": "0x1",
      "l1BlobBaseFeeScalar": "0xa118b",
      "l1Fee": "0xf27",
      "l1GasPrice": "0x875",
      "l1GasUsed": "0x640"
    },
    {
      "status": "0x1",
      "cumulativeGasUsed": "0xcb9fc3",
      "logs": [
        {
          "address": "0x5f83c882b6e5e6fb1d8445ac9346100f27b5bab9",
          "topics": [
            "0x9d1b2e7ff1b2d9bd50ad7a9b56ed20b9e647256d83a3e47699de26cfa86a106e",
            "0x0000000000000000000000000000000000000000000000000000000000000002",
            "0x000000000000000000000000ba5359fac9736e687c39d9613de3e8fa6c7af1ce"
          ],
          "data": "0x00000000000000000000000000000000000000000000021e19e0c9bab240000000000000000000000000000000000000000000000000021e19e0c9bab2400000",
          "blockHash": "0xc34602958d01fd0fc2e773e85ba4e65df062409193a73801e705deaf8febbcc9",
          "blockNumber": "0x18ea771",
          "blockTimestamp": "0x6830adc2",
          "transactionHash": "0x8cdf3ae5097e1eb892c6f42c4c953bf83ed1238999c012f94e81084dfef6525d",
          "transactionIndex": "0xd6",
          "logIndex": "0x52",
          "removed": false
        },
        {
          "address": "0x5f83c882b6e5e6fb1d8445ac9346100f27b5bab9",
          "topics": [
            "0x10ab5dcdbc065ef28e74deaa88c647c7c94b810c035fb8da57f739d2336eecc2",
            "0x0000000000000000000000000000000000000000000000000000000000000002"
          ],
          "data": "0x00000000000000000000000000000000000000000000021e19e0c9bab240000000000000000000000000000000000000000000000000021e19e0c9bab2400000",
          "blockHash": "0xc34602958d01fd0fc2e773e85ba4e65df062409193a73801e705deaf8febbcc9",
          "blockNumber": "0x18ea771",
          "blockTimestamp": "0x6830adc2",
          "transactionHash": "0x8cdf3ae5097e1eb892c6f42c4c953bf83ed1238999c012f94e81084dfef6525d",
          "transactionIndex": "0xd6",
          "logIndex": "0x53",
          "removed": false
        }
      ],
      "logsBloom": "0x04000000000000000000000400000000000000000000000000000000000000010000000000000000000000000000000000020000000000000400000000000000000000000000000000000000000000000000000000000000000000000000000000000000000000000000000000000000000000000000000000000000000000000000000004000000000000000000000000000200000000000000000001000000000000000000000000000100000000000000000000000000000000000000000000020000000000000000002040000000000000000000000000000000000004000000000000000000000000000000000000000000008000000000000020000000",
      "type": "0x2",
      "transactionHash": "0x8cdf3ae5097e1eb892c6f42c4c953bf83ed1238999c012f94e81084dfef6525d",
      "transactionIndex": "0xd6",
      "blockHash": "0xc34602958d01fd0fc2e773e85ba4e65df062409193a73801e705deaf8febbcc9",
      "blockNumber": "0x18ea771",
      "gasUsed": "0x15a3a",
      "effectiveGasPrice": "0xe2dcf",
      "from": "0xba5359fac9736e687c39d9613de3e8fa6c7af1ce",
      "to": "0x5f83c882b6e5e6fb1d8445ac9346100f27b5bab9",
      "contractAddress": null,
      "l1BaseFeeScalar": "0x44d",
      "l1BlobBaseFee": "0x1",
      "l1BlobBaseFeeScalar": "0xa118b",
      "l1Fee": "0xf27",
      "l1GasPrice": "0x875",
      "l1GasUsed": "0x640"
    },
    {
      "status": "0x1",
      "cumulativeGasUsed": "0xb22e93",
      "logs": [
        {
          "address": "0x2159692c92cd9358641d8eb9bed6d517544cb544",
          "topics": [
            "0xddf252ad1be2c89b69c2b068fc378daa952ba7f163c4a11628f55a4df523b3ef",
            "0x0000000000000000000000005f83c882b6e5e6fb1d8445ac9346100f27b5bab9",
            "0x000000000000000000000000ba5359fac9736e687c39d9613de3e8fa6c7af1ce"
          ],
          "data": "0x00000000000000000000000000000000000000000000021e19e0c9bab2400000",
          "blockHash": "0x52136bc81a70780d78ff4854524ab0247d6265c5ee96080d6993a5458b54b543",
          "blockNumber": "0x18ea772",
          "transactionHash": "0xd1bbf3a2e47f0b829aeb0cf39aec9c50ba6910ef4aebd750c086fb1115c78db9",
          "transactionIndex": "0xd2",
          "logIndex": "0x4a",
          "removed": false
        }
      ],
      "logsBloom": "0x00040000000000000000000000000000000000000000000000000000000000000000000000000000000000000000000000008000000000000400000000000000000000000000000000000008000000000000000000000000000000000000000000000000000000000000000000000000000000000000000000000010000000000000000000000000000000000000000000000000000000002000000001000000000000000000000000000000000000000000000000002000000000000000000000000002000000000000002000000000000010000000000040000000000000000000000000000000000000000000000000000000000000000000000000000000",
      "type": "0x2",
      "transactionHash": "0xd1bbf3a2e47f0b829aeb0cf39aec9c50ba6910ef4aebd750c086fb1115c78db9",
      "transactionIndex": "0xd2",
      "blockHash": "0x52136bc81a70780d78ff4854524ab0247d6265c5ee96080d6993a5458b54b543",
      "blockNumber": "0x18ea772",
      "gasUsed": "0xa99f",
      "effectiveGasPrice": "0xbbc0a1c",
      "from": "0xba5359fac9736e687c39d9613de3e8fa6c7af1ce",
      "to": "0x5f83c882b6e5e6fb1d8445ac9346100f27b5bab9",
      "contractAddress": null,
      "l1BaseFeeScalar": "0x44d",
      "l1BlobBaseFee": "0x1",
      "l1BlobBaseFeeScalar": "0xa118b",
      "l1Fee": "0xf27",
      "l1GasPrice": "0x875",
      "l1GasUsed": "0x640"
    }
  ],
  "libraries": [],
  "pending": [],
  "returns": {},
  "timestamp": 1748020677,
  "chain": 84532,
  "commit": "f60c9fb"
}